{
  "_format": "hh-sol-artifact-1",
  "contractName": "NFT",
  "sourceName": "contracts/NFT.sol",
  "abi": [
    {
      "inputs": [
        {
          "internalType": "string",
          "name": "name",
          "type": "string"
        },
        {
          "internalType": "string",
          "name": "symbol",
          "type": "string"
        },
        {
          "internalType": "string",
          "name": "baseURI",
          "type": "string"
        }
      ],
      "stateMutability": "nonpayable",
      "type": "constructor"
    },
    {
      "anonymous": false,
      "inputs": [
        {
          "indexed": true,
          "internalType": "address",
          "name": "owner",
          "type": "address"
        },
        {
          "indexed": true,
          "internalType": "address",
          "name": "approved",
          "type": "address"
        },
        {
          "indexed": true,
          "internalType": "uint256",
          "name": "tokenId",
          "type": "uint256"
        }
      ],
      "name": "Approval",
      "type": "event"
    },
    {
      "anonymous": false,
      "inputs": [
        {
          "indexed": true,
          "internalType": "address",
          "name": "owner",
          "type": "address"
        },
        {
          "indexed": true,
          "internalType": "address",
          "name": "operator",
          "type": "address"
        },
        {
          "indexed": false,
          "internalType": "bool",
          "name": "approved",
          "type": "bool"
        }
      ],
      "name": "ApprovalForAll",
      "type": "event"
    },
    {
      "anonymous": false,
      "inputs": [
        {
          "indexed": false,
          "internalType": "string",
          "name": "oldURI",
          "type": "string"
        },
        {
          "indexed": false,
          "internalType": "string",
          "name": "newURI",
          "type": "string"
        }
      ],
      "name": "BaseURIChanged",
      "type": "event"
    },
    {
      "anonymous": false,
      "inputs": [
        {
          "indexed": true,
          "internalType": "address",
          "name": "oldMinter",
          "type": "address"
        },
        {
          "indexed": true,
          "internalType": "address",
          "name": "newMinter",
          "type": "address"
        }
      ],
      "name": "MinterChanged",
      "type": "event"
    },
    {
      "anonymous": false,
      "inputs": [
        {
          "indexed": true,
          "internalType": "address",
          "name": "previousOwner",
          "type": "address"
        },
        {
          "indexed": true,
          "internalType": "address",
          "name": "newOwner",
          "type": "address"
        }
      ],
      "name": "OwnershipTransferred",
      "type": "event"
    },
    {
      "anonymous": false,
      "inputs": [
        {
          "indexed": true,
          "internalType": "address",
          "name": "from",
          "type": "address"
        },
        {
          "indexed": true,
          "internalType": "address",
          "name": "to",
          "type": "address"
        },
        {
          "indexed": true,
          "internalType": "uint256",
          "name": "tokenId",
          "type": "uint256"
        }
      ],
      "name": "Transfer",
      "type": "event"
    },
    {
      "inputs": [
        {
          "internalType": "address",
          "name": "to",
          "type": "address"
        },
        {
          "internalType": "uint256",
          "name": "tokenId",
          "type": "uint256"
        }
      ],
      "name": "approve",
      "outputs": [],
      "stateMutability": "nonpayable",
      "type": "function"
    },
    {
      "inputs": [
        {
          "internalType": "address",
          "name": "owner",
          "type": "address"
        }
      ],
      "name": "balanceOf",
      "outputs": [
        {
          "internalType": "uint256",
          "name": "",
          "type": "uint256"
        }
      ],
      "stateMutability": "view",
      "type": "function"
    },
    {
      "inputs": [
        {
          "internalType": "uint256",
          "name": "tokenId",
          "type": "uint256"
        }
      ],
      "name": "getApproved",
      "outputs": [
        {
          "internalType": "address",
          "name": "",
          "type": "address"
        }
      ],
      "stateMutability": "view",
      "type": "function"
    },
    {
      "inputs": [
        {
          "internalType": "address",
          "name": "owner",
          "type": "address"
        },
        {
          "internalType": "address",
          "name": "operator",
          "type": "address"
        }
      ],
      "name": "isApprovedForAll",
      "outputs": [
        {
          "internalType": "bool",
          "name": "",
          "type": "bool"
        }
      ],
      "stateMutability": "view",
      "type": "function"
    },
    {
      "inputs": [
        {
          "internalType": "address",
          "name": "to",
          "type": "address"
        },
        {
          "internalType": "uint256",
          "name": "tokenId",
          "type": "uint256"
        }
      ],
      "name": "mint",
      "outputs": [],
      "stateMutability": "nonpayable",
      "type": "function"
    },
    {
      "inputs": [],
      "name": "minter",
      "outputs": [
        {
          "internalType": "address",
          "name": "",
          "type": "address"
        }
      ],
      "stateMutability": "view",
      "type": "function"
    },
    {
      "inputs": [],
      "name": "name",
      "outputs": [
        {
          "internalType": "string",
          "name": "",
          "type": "string"
        }
      ],
      "stateMutability": "view",
      "type": "function"
    },
    {
      "inputs": [],
      "name": "owner",
      "outputs": [
        {
          "internalType": "address",
          "name": "",
          "type": "address"
        }
      ],
      "stateMutability": "view",
      "type": "function"
    },
    {
      "inputs": [
        {
          "internalType": "uint256",
          "name": "tokenId",
          "type": "uint256"
        }
      ],
      "name": "ownerOf",
      "outputs": [
        {
          "internalType": "address",
          "name": "",
          "type": "address"
        }
      ],
      "stateMutability": "view",
      "type": "function"
    },
    {
      "inputs": [],
      "name": "renounceOwnership",
      "outputs": [],
      "stateMutability": "nonpayable",
      "type": "function"
    },
    {
      "inputs": [
        {
          "internalType": "address",
          "name": "from",
          "type": "address"
        },
        {
          "internalType": "address",
          "name": "to",
          "type": "address"
        },
        {
          "internalType": "uint256",
          "name": "tokenId",
          "type": "uint256"
        }
      ],
      "name": "safeTransferFrom",
      "outputs": [],
      "stateMutability": "nonpayable",
      "type": "function"
    },
    {
      "inputs": [
        {
          "internalType": "address",
          "name": "from",
          "type": "address"
        },
        {
          "internalType": "address",
          "name": "to",
          "type": "address"
        },
        {
          "internalType": "uint256",
          "name": "tokenId",
          "type": "uint256"
        },
        {
          "internalType": "bytes",
          "name": "data",
          "type": "bytes"
        }
      ],
      "name": "safeTransferFrom",
      "outputs": [],
      "stateMutability": "nonpayable",
      "type": "function"
    },
    {
      "inputs": [
        {
          "internalType": "address",
          "name": "operator",
          "type": "address"
        },
        {
          "internalType": "bool",
          "name": "approved",
          "type": "bool"
        }
      ],
      "name": "setApprovalForAll",
      "outputs": [],
      "stateMutability": "nonpayable",
      "type": "function"
    },
    {
      "inputs": [
        {
          "internalType": "string",
          "name": "newBaseURI",
          "type": "string"
        }
      ],
      "name": "setBaseURI",
      "outputs": [],
      "stateMutability": "nonpayable",
      "type": "function"
    },
    {
      "inputs": [
        {
          "internalType": "address",
          "name": "newMinter",
          "type": "address"
        }
      ],
      "name": "setMinter",
      "outputs": [],
      "stateMutability": "nonpayable",
      "type": "function"
    },
    {
      "inputs": [
        {
          "internalType": "bytes4",
          "name": "interfaceId",
          "type": "bytes4"
        }
      ],
      "name": "supportsInterface",
      "outputs": [
        {
          "internalType": "bool",
          "name": "",
          "type": "bool"
        }
      ],
      "stateMutability": "view",
      "type": "function"
    },
    {
      "inputs": [],
      "name": "symbol",
      "outputs": [
        {
          "internalType": "string",
          "name": "",
          "type": "string"
        }
      ],
      "stateMutability": "view",
      "type": "function"
    },
    {
      "inputs": [
        {
          "internalType": "uint256",
          "name": "tokenId",
          "type": "uint256"
        }
      ],
      "name": "tokenURI",
      "outputs": [
        {
          "internalType": "string",
          "name": "",
          "type": "string"
        }
      ],
      "stateMutability": "view",
      "type": "function"
    },
    {
      "inputs": [
        {
          "internalType": "address",
          "name": "from",
          "type": "address"
        },
        {
          "internalType": "address",
          "name": "to",
          "type": "address"
        },
        {
          "internalType": "uint256",
          "name": "tokenId",
          "type": "uint256"
        }
      ],
      "name": "transferFrom",
      "outputs": [],
      "stateMutability": "nonpayable",
      "type": "function"
    },
    {
      "inputs": [
        {
          "internalType": "address",
          "name": "newOwner",
          "type": "address"
        }
      ],
      "name": "transferOwnership",
      "outputs": [],
      "stateMutability": "nonpayable",
      "type": "function"
    }
  ],
  "bytecode": "0x60806040523480156200001157600080fd5b5060405162001bbc38038062001bbc8339810160408190526200003491620001b5565b82826000620000448382620002d5565b506001620000538282620002d5565b505050620000706200006a6200009a60201b60201c565b6200009e565b600780546001600160a01b031916331790556008620000908282620002d5565b50505050620003a1565b3390565b600680546001600160a01b038381166001600160a01b0319831681179093556040519116919082907f8be0079c531659141344cd1fd0a4f28419497f9722a3daafe3b4186f6b6457e090600090a35050565b634e487b7160e01b600052604160045260246000fd5b600082601f8301126200011857600080fd5b81516001600160401b0380821115620001355762000135620000f0565b604051601f8301601f19908116603f01168101908282118183101715620001605762000160620000f0565b816040528381526020925086838588010111156200017d57600080fd5b600091505b83821015620001a1578582018301518183018401529082019062000182565b600093810190920192909252949350505050565b600080600060608486031215620001cb57600080fd5b83516001600160401b0380821115620001e357600080fd5b620001f18783880162000106565b945060208601519150808211156200020857600080fd5b620002168783880162000106565b935060408601519150808211156200022d57600080fd5b506200023c8682870162000106565b9150509250925092565b600181811c908216806200025b57607f821691505b6020821081036200027c57634e487b7160e01b600052602260045260246000fd5b50919050565b601f821115620002d057600081815260208120601f850160051c81016020861015620002ab5750805b601f850160051c820191505b81811015620002cc57828155600101620002b7565b5050505b505050565b81516001600160401b03811115620002f157620002f1620000f0565b620003098162000302845462000246565b8462000282565b602080601f831160018114620003415760008415620003285750858301515b600019600386901b1c1916600185901b178555620002cc565b600085815260208120601f198616915b82811015620003725788860151825594840194600190910190840162000351565b5085821015620003915787850151600019600388901b60f8161c191681555b5050505050600190811b01905550565b61180b80620003b16000396000f3fe608060405234801561001057600080fd5b506004361061012c5760003560e01c806370a08231116100ad578063b88d4fde11610071578063b88d4fde14610275578063c87b56dd14610288578063e985e9c51461029b578063f2fde38b146102d7578063fca3b5aa146102ea57600080fd5b806370a0823114610220578063715018a6146102415780638da5cb5b1461024957806395d89b411461025a578063a22cb4651461026257600080fd5b806323b872dd116100f457806323b872dd146101c157806340c10f19146101d457806342842e0e146101e757806355f804b3146101fa5780636352211e1461020d57600080fd5b806301ffc9a71461013157806306fdde0314610159578063075461721461016e578063081812fc14610199578063095ea7b3146101ac575b600080fd5b61014461013f3660046111fc565b6102fd565b60405190151581526020015b60405180910390f35b61016161034f565b6040516101509190611269565b600754610181906001600160a01b031681565b6040516001600160a01b039091168152602001610150565b6101816101a736600461127c565b6103e1565b6101bf6101ba3660046112b1565b610408565b005b6101bf6101cf3660046112db565b610522565b6101bf6101e23660046112b1565b610553565b6101bf6101f53660046112db565b6105ac565b6101bf6102083660046113a3565b6105c7565b61018161021b36600461127c565b6106ab565b61023361022e3660046113ec565b61070b565b604051908152602001610150565b6101bf610791565b6006546001600160a01b0316610181565b6101616107a5565b6101bf610270366004611407565b6107b4565b6101bf610283366004611443565b6107bf565b61016161029636600461127c565b6107f7565b6101446102a93660046114bf565b6001600160a01b03918216600090815260056020908152604080832093909416825291909152205460ff1690565b6101bf6102e53660046113ec565b61085e565b6101bf6102f83660046113ec565b6108d7565b60006001600160e01b031982166380ac58cd60e01b148061032e57506001600160e01b03198216635b5e139f60e01b145b8061034957506301ffc9a760e01b6001600160e01b03198316145b92915050565b60606000805461035e906114f2565b80601f016020809104026020016040519081016040528092919081815260200182805461038a906114f2565b80156103d75780601f106103ac576101008083540402835291602001916103d7565b820191906000526020600020905b8154815290600101906020018083116103ba57829003601f168201915b5050505050905090565b60006103ec82610983565b506000908152600460205260409020546001600160a01b031690565b6000610413826106ab565b9050806001600160a01b0316836001600160a01b0316036104855760405162461bcd60e51b815260206004820152602160248201527f4552433732313a20617070726f76616c20746f2063757272656e74206f776e656044820152603960f91b60648201526084015b60405180910390fd5b336001600160a01b03821614806104a157506104a181336102a9565b6105135760405162461bcd60e51b815260206004820152603d60248201527f4552433732313a20617070726f76652063616c6c6572206973206e6f7420746f60448201527f6b656e206f776e6572206f7220617070726f76656420666f7220616c6c000000606482015260840161047c565b61051d83836109e2565b505050565b61052c3382610a50565b6105485760405162461bcd60e51b815260040161047c9061152c565b61051d838383610acf565b6007546001600160a01b0316331461059e5760405162461bcd60e51b815260206004820152600e60248201526d2737ba103a34329036b4b73a32b960911b604482015260640161047c565b6105a88282610c33565b5050565b61051d838383604051806020016040528060008152506107bf565b6105cf610dbe565b6000600880546105de906114f2565b80601f016020809104026020016040519081016040528092919081815260200182805461060a906114f2565b80156106575780601f1061062c57610100808354040283529160200191610657565b820191906000526020600020905b81548152906001019060200180831161063a57829003601f168201915b50505050509050816008908161066d91906115c7565b507fc41b7cb64e5be01af4afc2641afc861432136270f4206b7773f229b658b96699818360405161069f929190611687565b60405180910390a15050565b6000818152600260205260408120546001600160a01b0316806103495760405162461bcd60e51b8152602060048201526018602482015277115490cdcc8c4e881a5b9d985b1a59081d1bdad95b88125160421b604482015260640161047c565b60006001600160a01b0382166107755760405162461bcd60e51b815260206004820152602960248201527f4552433732313a2061646472657373207a65726f206973206e6f7420612076616044820152683634b21037bbb732b960b91b606482015260840161047c565b506001600160a01b031660009081526003602052604090205490565b610799610dbe565b6107a36000610e18565b565b60606001805461035e906114f2565b6105a8338383610e6a565b6107c93383610a50565b6107e55760405162461bcd60e51b815260040161047c9061152c565b6107f184848484610f38565b50505050565b606061080282610983565b600061080c610f6b565b9050600081511161082c5760405180602001604052806000815250610857565b8061083684610f7a565b6040516020016108479291906116b5565b6040516020818303038152906040525b9392505050565b610866610dbe565b6001600160a01b0381166108cb5760405162461bcd60e51b815260206004820152602660248201527f4f776e61626c653a206e6577206f776e657220697320746865207a65726f206160448201526564647265737360d01b606482015260840161047c565b6108d481610e18565b50565b6108df610dbe565b6001600160a01b0381166109275760405162461bcd60e51b815260206004820152600f60248201526e496e76616c6964206164647265737360881b604482015260640161047c565b6007546040516001600160a01b038084169216907f3b0007eb941cf645526cbb3a4fdaecda9d28ce4843167d9263b536a1f1edc0f690600090a3600780546001600160a01b0319166001600160a01b0392909216919091179055565b6000818152600260205260409020546001600160a01b03166108d45760405162461bcd60e51b8152602060048201526018602482015277115490cdcc8c4e881a5b9d985b1a59081d1bdad95b88125160421b604482015260640161047c565b600081815260046020526040902080546001600160a01b0319166001600160a01b0384169081179091558190610a17826106ab565b6001600160a01b03167f8c5be1e5ebec7d5bd14f71427d1e84f3dd0314c0f7b2291e5b200ac8c7c3b92560405160405180910390a45050565b600080610a5c836106ab565b9050806001600160a01b0316846001600160a01b03161480610aa357506001600160a01b0380821660009081526005602090815260408083209388168352929052205460ff165b80610ac75750836001600160a01b0316610abc846103e1565b6001600160a01b0316145b949350505050565b826001600160a01b0316610ae2826106ab565b6001600160a01b031614610b085760405162461bcd60e51b815260040161047c906116e4565b6001600160a01b038216610b6a5760405162461bcd60e51b8152602060048201526024808201527f4552433732313a207472616e7366657220746f20746865207a65726f206164646044820152637265737360e01b606482015260840161047c565b826001600160a01b0316610b7d826106ab565b6001600160a01b031614610ba35760405162461bcd60e51b815260040161047c906116e4565b600081815260046020908152604080832080546001600160a01b03199081169091556001600160a01b0387811680865260038552838620805460001901905590871680865283862080546001019055868652600290945282852080549092168417909155905184937fddf252ad1be2c89b69c2b068fc378daa952ba7f163c4a11628f55a4df523b3ef91a4505050565b6001600160a01b038216610c895760405162461bcd60e51b815260206004820181905260248201527f4552433732313a206d696e7420746f20746865207a65726f2061646472657373604482015260640161047c565b6000818152600260205260409020546001600160a01b031615610cee5760405162461bcd60e51b815260206004820152601c60248201527f4552433732313a20746f6b656e20616c7265616479206d696e74656400000000604482015260640161047c565b6000818152600260205260409020546001600160a01b031615610d535760405162461bcd60e51b815260206004820152601c60248201527f4552433732313a20746f6b656e20616c7265616479206d696e74656400000000604482015260640161047c565b6001600160a01b038216600081815260036020908152604080832080546001019055848352600290915280822080546001600160a01b0319168417905551839291907fddf252ad1be2c89b69c2b068fc378daa952ba7f163c4a11628f55a4df523b3ef908290a45050565b6006546001600160a01b031633146107a35760405162461bcd60e51b815260206004820181905260248201527f4f776e61626c653a2063616c6c6572206973206e6f7420746865206f776e6572604482015260640161047c565b600680546001600160a01b038381166001600160a01b0319831681179093556040519116919082907f8be0079c531659141344cd1fd0a4f28419497f9722a3daafe3b4186f6b6457e090600090a35050565b816001600160a01b0316836001600160a01b031603610ecb5760405162461bcd60e51b815260206004820152601960248201527f4552433732313a20617070726f766520746f2063616c6c657200000000000000604482015260640161047c565b6001600160a01b03838116600081815260056020908152604080832094871680845294825291829020805460ff191686151590811790915591519182527f17307eab39ab6107e8899845ad3d59bd9653f200f220920489ca2b5937696c31910160405180910390a3505050565b610f43848484610acf565b610f4f8484848461100d565b6107f15760405162461bcd60e51b815260040161047c90611729565b60606008805461035e906114f2565b60606000610f878361110e565b600101905060008167ffffffffffffffff811115610fa757610fa7611317565b6040519080825280601f01601f191660200182016040528015610fd1576020820181803683370190505b5090508181016020015b600019016f181899199a1a9b1b9c1cb0b131b232b360811b600a86061a8153600a8504945084610fdb57509392505050565b60006001600160a01b0384163b1561110357604051630a85bd0160e11b81526001600160a01b0385169063150b7a029061105190339089908890889060040161177b565b6020604051808303816000875af192505050801561108c575060408051601f3d908101601f19168201909252611089918101906117b8565b60015b6110e9573d8080156110ba576040519150601f19603f3d011682016040523d82523d6000602084013e6110bf565b606091505b5080516000036110e15760405162461bcd60e51b815260040161047c90611729565b805181602001fd5b6001600160e01b031916630a85bd0160e11b149050610ac7565b506001949350505050565b60008072184f03e93ff9f4daa797ed6e38ed64bf6a1f0160401b831061114d5772184f03e93ff9f4daa797ed6e38ed64bf6a1f0160401b830492506040015b6d04ee2d6d415b85acef81000000008310611179576d04ee2d6d415b85acef8100000000830492506020015b662386f26fc10000831061119757662386f26fc10000830492506010015b6305f5e10083106111af576305f5e100830492506008015b61271083106111c357612710830492506004015b606483106111d5576064830492506002015b600a83106103495760010192915050565b6001600160e01b0319811681146108d457600080fd5b60006020828403121561120e57600080fd5b8135610857816111e6565b60005b8381101561123457818101518382015260200161121c565b50506000910152565b60008151808452611255816020860160208601611219565b601f01601f19169290920160200192915050565b602081526000610857602083018461123d565b60006020828403121561128e57600080fd5b5035919050565b80356001600160a01b03811681146112ac57600080fd5b919050565b600080604083850312156112c457600080fd5b6112cd83611295565b946020939093013593505050565b6000806000606084860312156112f057600080fd5b6112f984611295565b925061130760208501611295565b9150604084013590509250925092565b634e487b7160e01b600052604160045260246000fd5b600067ffffffffffffffff8084111561134857611348611317565b604051601f8501601f19908116603f0116810190828211818310171561137057611370611317565b8160405280935085815286868601111561138957600080fd5b858560208301376000602087830101525050509392505050565b6000602082840312156113b557600080fd5b813567ffffffffffffffff8111156113cc57600080fd5b8201601f810184136113dd57600080fd5b610ac78482356020840161132d565b6000602082840312156113fe57600080fd5b61085782611295565b6000806040838503121561141a57600080fd5b61142383611295565b91506020830135801515811461143857600080fd5b809150509250929050565b6000806000806080858703121561145957600080fd5b61146285611295565b935061147060208601611295565b925060408501359150606085013567ffffffffffffffff81111561149357600080fd5b8501601f810187136114a457600080fd5b6114b38782356020840161132d565b91505092959194509250565b600080604083850312156114d257600080fd5b6114db83611295565b91506114e960208401611295565b90509250929050565b600181811c9082168061150657607f821691505b60208210810361152657634e487b7160e01b600052602260045260246000fd5b50919050565b6020808252602d908201527f4552433732313a2063616c6c6572206973206e6f7420746f6b656e206f776e6560408201526c1c881bdc88185c1c1c9bdd9959609a1b606082015260800190565b601f82111561051d57600081815260208120601f850160051c810160208610156115a05750805b601f850160051c820191505b818110156115bf578281556001016115ac565b505050505050565b815167ffffffffffffffff8111156115e1576115e1611317565b6115f5816115ef84546114f2565b84611579565b602080601f83116001811461162a57600084156116125750858301515b600019600386901b1c1916600185901b1785556115bf565b600085815260208120601f198616915b828110156116595788860151825594840194600190910190840161163a565b50858210156116775787850151600019600388901b60f8161c191681555b5050505050600190811b01905550565b60408152600061169a604083018561123d565b82810360208401526116ac818561123d565b95945050505050565b600083516116c7818460208801611219565b8351908301906116db818360208801611219565b01949350505050565b60208082526025908201527f4552433732313a207472616e736665722066726f6d20696e636f72726563742060408201526437bbb732b960d91b606082015260800190565b60208082526032908201527f4552433732313a207472616e7366657220746f206e6f6e20455243373231526560408201527131b2b4bb32b91034b6b83632b6b2b73a32b960711b606082015260800190565b6001600160a01b03858116825284166020820152604081018390526080606082018190526000906117ae9083018461123d565b9695505050505050565b6000602082840312156117ca57600080fd5b8151610857816111e656fea2646970667358221220762ed561c595ae6829605064825a958b2684001e104e6d934151c344f30868b064736f6c63430008130033",
  "linkReferences": {},
  "deployedLinkReferences": {}
}