{
  "_format": "hh-sol-artifact-1",
  "contractName": "NFT",
  "sourceName": "contracts/NFT.sol",
  "abi": [
    {
      "inputs": [
        {
          "internalType": "string",
          "name": "name",
          "type": "string"
        },
        {
          "internalType": "string",
          "name": "symbol",
          "type": "string"
        },
        {
          "internalType": "string",
          "name": "baseURI",
          "type": "string"
        }
      ],
      "stateMutability": "nonpayable",
      "type": "constructor"
    },
    {
      "anonymous": false,
      "inputs": [
        {
          "indexed": true,
          "internalType": "address",
          "name": "owner",
          "type": "address"
        },
        {
          "indexed": true,
          "internalType": "address",
          "name": "approved",
          "type": "address"
        },
        {
          "indexed": true,
          "internalType": "uint256",
          "name": "tokenId",
          "type": "uint256"
        }
      ],
      "name": "Approval",
      "type": "event"
    },
    {
      "anonymous": false,
      "inputs": [
        {
          "indexed": true,
          "internalType": "address",
          "name": "owner",
          "type": "address"
        },
        {
          "indexed": true,
          "internalType": "address",
          "name": "operator",
          "type": "address"
        },
        {
          "indexed": false,
          "internalType": "bool",
          "name": "approved",
          "type": "bool"
        }
      ],
      "name": "ApprovalForAll",
      "type": "event"
    },
    {
      "anonymous": false,
      "inputs": [
        {
          "indexed": true,
          "internalType": "address",
          "name": "oldMinter",
          "type": "address"
        },
        {
          "indexed": true,
          "internalType": "address",
          "name": "newMinter",
          "type": "address"
        }
      ],
      "name": "MinterChanged",
      "type": "event"
    },
    {
      "anonymous": false,
      "inputs": [
        {
          "indexed": true,
          "internalType": "address",
          "name": "previousOwner",
          "type": "address"
        },
        {
          "indexed": true,
          "internalType": "address",
          "name": "newOwner",
          "type": "address"
        }
      ],
      "name": "OwnershipTransferred",
      "type": "event"
    },
    {
      "anonymous": false,
      "inputs": [
        {
          "indexed": true,
          "internalType": "address",
          "name": "from",
          "type": "address"
        },
        {
          "indexed": true,
          "internalType": "address",
          "name": "to",
          "type": "address"
        },
        {
          "indexed": true,
          "internalType": "uint256",
          "name": "tokenId",
          "type": "uint256"
        }
      ],
      "name": "Transfer",
      "type": "event"
    },
    {
      "inputs": [
        {
          "internalType": "address",
          "name": "to",
          "type": "address"
        },
        {
          "internalType": "uint256",
          "name": "tokenId",
          "type": "uint256"
        }
      ],
      "name": "approve",
      "outputs": [],
      "stateMutability": "nonpayable",
      "type": "function"
    },
    {
      "inputs": [
        {
          "internalType": "address",
          "name": "owner",
          "type": "address"
        }
      ],
      "name": "balanceOf",
      "outputs": [
        {
          "internalType": "uint256",
          "name": "",
          "type": "uint256"
        }
      ],
      "stateMutability": "view",
      "type": "function"
    },
    {
      "inputs": [],
      "name": "baseURI",
      "outputs": [
        {
          "internalType": "string",
          "name": "",
          "type": "string"
        }
      ],
      "stateMutability": "view",
      "type": "function"
    },
    {
      "inputs": [
        {
          "internalType": "uint256",
          "name": "tokenId",
          "type": "uint256"
        }
      ],
      "name": "getApproved",
      "outputs": [
        {
          "internalType": "address",
          "name": "",
          "type": "address"
        }
      ],
      "stateMutability": "view",
      "type": "function"
    },
    {
      "inputs": [
        {
          "internalType": "address",
          "name": "owner",
          "type": "address"
        },
        {
          "internalType": "address",
          "name": "operator",
          "type": "address"
        }
      ],
      "name": "isApprovedForAll",
      "outputs": [
        {
          "internalType": "bool",
          "name": "",
          "type": "bool"
        }
      ],
      "stateMutability": "view",
      "type": "function"
    },
    {
      "inputs": [
        {
          "internalType": "address",
          "name": "to",
          "type": "address"
        },
        {
          "internalType": "uint256",
          "name": "tokenId",
          "type": "uint256"
        }
      ],
      "name": "mint",
      "outputs": [],
      "stateMutability": "nonpayable",
      "type": "function"
    },
    {
      "inputs": [],
      "name": "minter",
      "outputs": [
        {
          "internalType": "address",
          "name": "",
          "type": "address"
        }
      ],
      "stateMutability": "view",
      "type": "function"
    },
    {
      "inputs": [],
      "name": "name",
      "outputs": [
        {
          "internalType": "string",
          "name": "",
          "type": "string"
        }
      ],
      "stateMutability": "view",
      "type": "function"
    },
    {
      "inputs": [],
      "name": "owner",
      "outputs": [
        {
          "internalType": "address",
          "name": "",
          "type": "address"
        }
      ],
      "stateMutability": "view",
      "type": "function"
    },
    {
      "inputs": [
        {
          "internalType": "uint256",
          "name": "tokenId",
          "type": "uint256"
        }
      ],
      "name": "ownerOf",
      "outputs": [
        {
          "internalType": "address",
          "name": "",
          "type": "address"
        }
      ],
      "stateMutability": "view",
      "type": "function"
    },
    {
      "inputs": [],
      "name": "renounceOwnership",
      "outputs": [],
      "stateMutability": "nonpayable",
      "type": "function"
    },
    {
      "inputs": [
        {
          "internalType": "address",
          "name": "from",
          "type": "address"
        },
        {
          "internalType": "address",
          "name": "to",
          "type": "address"
        },
        {
          "internalType": "uint256",
          "name": "tokenId",
          "type": "uint256"
        }
      ],
      "name": "safeTransferFrom",
      "outputs": [],
      "stateMutability": "nonpayable",
      "type": "function"
    },
    {
      "inputs": [
        {
          "internalType": "address",
          "name": "from",
          "type": "address"
        },
        {
          "internalType": "address",
          "name": "to",
          "type": "address"
        },
        {
          "internalType": "uint256",
          "name": "tokenId",
          "type": "uint256"
        },
        {
          "internalType": "bytes",
          "name": "_data",
          "type": "bytes"
        }
      ],
      "name": "safeTransferFrom",
      "outputs": [],
      "stateMutability": "nonpayable",
      "type": "function"
    },
    {
      "inputs": [
        {
          "internalType": "address",
          "name": "operator",
          "type": "address"
        },
        {
          "internalType": "bool",
          "name": "approved",
          "type": "bool"
        }
      ],
      "name": "setApprovalForAll",
      "outputs": [],
      "stateMutability": "nonpayable",
      "type": "function"
    },
    {
      "inputs": [
        {
          "internalType": "string",
          "name": "baseURI",
          "type": "string"
        }
      ],
      "name": "setBaseURI",
      "outputs": [],
      "stateMutability": "nonpayable",
      "type": "function"
    },
    {
      "inputs": [
        {
          "internalType": "address",
          "name": "newMinter",
          "type": "address"
        }
      ],
      "name": "setMinter",
      "outputs": [],
      "stateMutability": "nonpayable",
      "type": "function"
    },
    {
      "inputs": [
        {
          "internalType": "bytes4",
          "name": "interfaceId",
          "type": "bytes4"
        }
      ],
      "name": "supportsInterface",
      "outputs": [
        {
          "internalType": "bool",
          "name": "",
          "type": "bool"
        }
      ],
      "stateMutability": "view",
      "type": "function"
    },
    {
      "inputs": [],
      "name": "symbol",
      "outputs": [
        {
          "internalType": "string",
          "name": "",
          "type": "string"
        }
      ],
      "stateMutability": "view",
      "type": "function"
    },
    {
      "inputs": [
        {
          "internalType": "uint256",
          "name": "index",
          "type": "uint256"
        }
      ],
      "name": "tokenByIndex",
      "outputs": [
        {
          "internalType": "uint256",
          "name": "",
          "type": "uint256"
        }
      ],
      "stateMutability": "view",
      "type": "function"
    },
    {
      "inputs": [
        {
          "internalType": "address",
          "name": "owner",
          "type": "address"
        },
        {
          "internalType": "uint256",
          "name": "index",
          "type": "uint256"
        }
      ],
      "name": "tokenOfOwnerByIndex",
      "outputs": [
        {
          "internalType": "uint256",
          "name": "",
          "type": "uint256"
        }
      ],
      "stateMutability": "view",
      "type": "function"
    },
    {
      "inputs": [
        {
          "internalType": "uint256",
          "name": "tokenId",
          "type": "uint256"
        }
      ],
      "name": "tokenURI",
      "outputs": [
        {
          "internalType": "string",
          "name": "",
          "type": "string"
        }
      ],
      "stateMutability": "view",
      "type": "function"
    },
    {
      "inputs": [],
      "name": "totalSupply",
      "outputs": [
        {
          "internalType": "uint256",
          "name": "",
          "type": "uint256"
        }
      ],
      "stateMutability": "view",
      "type": "function"
    },
    {
      "inputs": [
        {
          "internalType": "address",
          "name": "from",
          "type": "address"
        },
        {
          "internalType": "address",
          "name": "to",
          "type": "address"
        },
        {
          "internalType": "uint256",
          "name": "tokenId",
          "type": "uint256"
        }
      ],
      "name": "transferFrom",
      "outputs": [],
      "stateMutability": "nonpayable",
      "type": "function"
    },
    {
      "inputs": [
        {
          "internalType": "address",
          "name": "newOwner",
          "type": "address"
        }
      ],
      "name": "transferOwnership",
      "outputs": [],
      "stateMutability": "nonpayable",
      "type": "function"
    }
  ],
  "bytecode": "0x60806040523480156200001157600080fd5b506040516200258938038062002589833981810160405260608110156200003757600080fd5b81019080805160405193929190846401000000008211156200005857600080fd5b9083019060208201858111156200006e57600080fd5b82516401000000008111828201881017156200008957600080fd5b82525081516020918201929091019080838360005b83811015620000b85781810151838201526020016200009e565b50505050905090810190601f168015620000e65780820380516001836020036101000a031916815260200191505b50604052602001805160405193929190846401000000008211156200010a57600080fd5b9083019060208201858111156200012057600080fd5b82516401000000008111828201881017156200013b57600080fd5b82525081516020918201929091019080838360005b838110156200016a57818101518382015260200162000150565b50505050905090810190601f168015620001985780820380516001836020036101000a031916815260200191505b5060405260200180516040519392919084640100000000821115620001bc57600080fd5b908301906020820185811115620001d257600080fd5b8251640100000000811182820188101715620001ed57600080fd5b82525081516020918201929091019080838360005b838110156200021c57818101518382015260200162000202565b50505050905090810190601f1680156200024a5780820380516001836020036101000a031916815260200191505b5060405250849150839050620002676301ffc9a760e01b6200034c565b81516200027c906006906020850190620003ee565b50805162000292906007906020840190620003ee565b50620002a56380ac58cd60e01b6200034c565b620002b7635b5e139f60e01b6200034c565b620002c963780e9d6360e01b6200034c565b5060009050620002d8620003d1565b600a80546001600160a01b0319166001600160a01b038316908117909155604051919250906000907f8be0079c531659141344cd1fd0a4f28419497f9722a3daafe3b4186f6b6457e0908290a350600b80546001600160a01b031916331790556200034381620003d5565b5050506200049a565b6001600160e01b03198082161415620003ac576040805162461bcd60e51b815260206004820152601c60248201527f4552433136353a20696e76616c696420696e7465726661636520696400000000604482015290519081900360640190fd5b6001600160e01b0319166000908152602081905260409020805460ff19166001179055565b3390565b8051620003ea906009906020840190620003ee565b5050565b828054600181600116156101000203166002900490600052602060002090601f01602090048101928262000426576000855562000471565b82601f106200044157805160ff191683800117855562000471565b8280016001018555821562000471579182015b828111156200047157825182559160200191906001019062000454565b506200047f92915062000483565b5090565b5b808211156200047f576000815560010162000484565b6120df80620004aa6000396000f3fe608060405234801561001057600080fd5b50600436106101585760003560e01c80636352211e116100c3578063a22cb4651161007c578063a22cb46514610488578063b88d4fde146104b6578063c87b56dd1461057c578063e985e9c514610599578063f2fde38b146105c7578063fca3b5aa146105ed57610158565b80636352211e146104255780636c0360eb1461044257806370a082311461044a578063715018a6146104705780638da5cb5b1461047857806395d89b411461048057610158565b806323b872dd1161011557806323b872dd1461029e5780632f745c59146102d457806340c10f191461030057806342842e0e1461032c5780634f6ccce71461036257806355f804b31461037f57610158565b806301ffc9a71461015d57806306fdde03146101985780630754617214610215578063081812fc14610239578063095ea7b31461025657806318160ddd14610284575b600080fd5b6101846004803603602081101561017357600080fd5b50356001600160e01b031916610613565b604080519115158252519081900360200190f35b6101a0610636565b6040805160208082528351818301528351919283929083019185019080838360005b838110156101da5781810151838201526020016101c2565b50505050905090810190601f1680156102075780820380516001836020036101000a031916815260200191505b509250505060405180910390f35b61021d6106cc565b604080516001600160a01b039092168252519081900360200190f35b61021d6004803603602081101561024f57600080fd5b50356106db565b6102826004803603604081101561026c57600080fd5b506001600160a01b03813516906020013561073d565b005b61028c610818565b60408051918252519081900360200190f35b610282600480360360608110156102b457600080fd5b506001600160a01b03813581169160208101359091169060400135610829565b61028c600480360360408110156102ea57600080fd5b506001600160a01b038135169060200135610880565b6102826004803603604081101561031657600080fd5b506001600160a01b0381351690602001356108ab565b6102826004803603606081101561034257600080fd5b506001600160a01b03813581169160208101359091169060400135610909565b61028c6004803603602081101561037857600080fd5b5035610924565b6102826004803603602081101561039557600080fd5b8101906020810181356401000000008111156103b057600080fd5b8201836020820111156103c257600080fd5b803590602001918460018302840111640100000000831117156103e457600080fd5b91908080601f01602080910402602001604051908101604052809392919081815260200183838082843760009201919091525092955061093a945050505050565b61021d6004803603602081101561043b57600080fd5b50356109a8565b6101a06109d0565b61028c6004803603602081101561046057600080fd5b50356001600160a01b0316610a31565b610282610a99565b61021d610b45565b6101a0610b54565b6102826004803603604081101561049e57600080fd5b506001600160a01b0381351690602001351515610bb5565b610282600480360360808110156104cc57600080fd5b6001600160a01b0382358116926020810135909116916040820135919081019060808101606082013564010000000081111561050757600080fd5b82018360208201111561051957600080fd5b8035906020019184600183028401116401000000008311171561053b57600080fd5b91908080601f016020809104026020016040519081016040528093929190818152602001838380828437600092019190915250929550610cba945050505050565b6101a06004803603602081101561059257600080fd5b5035610d18565b610184600480360360408110156105af57600080fd5b506001600160a01b0381358116916020013516610f99565b610282600480360360208110156105dd57600080fd5b50356001600160a01b0316610fc7565b6102826004803603602081101561060357600080fd5b50356001600160a01b03166110ca565b6001600160e01b0319811660009081526020819052604090205460ff165b919050565b60068054604080516020601f60026000196101006001881615020190951694909404938401819004810282018101909252828152606093909290918301828280156106c25780601f10610697576101008083540402835291602001916106c2565b820191906000526020600020905b8154815290600101906020018083116106a557829003601f168201915b5050505050905090565b600b546001600160a01b031681565b60006106e6826111d5565b6107215760405162461bcd60e51b815260040180806020018281038252602c815260200180611fb4602c913960400191505060405180910390fd5b506000908152600460205260409020546001600160a01b031690565b6000610748826109a8565b9050806001600160a01b0316836001600160a01b0316141561079b5760405162461bcd60e51b81526004018080602001828103825260218152602001806120586021913960400191505060405180910390fd5b806001600160a01b03166107ad6111e2565b6001600160a01b031614806107ce57506107ce816107c96111e2565b610f99565b6108095760405162461bcd60e51b8152600401808060200182810382526038815260200180611f076038913960400191505060405180910390fd5b61081383836111e6565b505050565b60006108246002611254565b905090565b61083a6108346111e2565b8261125f565b6108755760405162461bcd60e51b81526004018080602001828103825260318152602001806120796031913960400191505060405180910390fd5b610813838383611303565b6001600160a01b03821660009081526001602052604081206108a2908361144f565b90505b92915050565b600b546001600160a01b031633146108fb576040805162461bcd60e51b815260206004820152600e60248201526d2737ba103a34329036b4b73a32b960911b604482015290519081900360640190fd5b610905828261145b565b5050565b61081383838360405180602001604052806000815250610cba565b600080610932600284611589565b509392505050565b6109426111e2565b6001600160a01b0316610953610b45565b6001600160a01b03161461099c576040805162461bcd60e51b81526020600482018190526024820152600080516020611fe0833981519152604482015290519081900360640190fd5b6109a5816115a5565b50565b60006108a582604051806060016040528060298152602001611f6960299139600291906115b8565b60098054604080516020601f60026000196101006001881615020190951694909404938401819004810282018101909252828152606093909290918301828280156106c25780601f10610697576101008083540402835291602001916106c2565b60006001600160a01b038216610a785760405162461bcd60e51b815260040180806020018281038252602a815260200180611f3f602a913960400191505060405180910390fd5b6001600160a01b03821660009081526001602052604090206108a590611254565b610aa16111e2565b6001600160a01b0316610ab2610b45565b6001600160a01b031614610afb576040805162461bcd60e51b81526020600482018190526024820152600080516020611fe0833981519152604482015290519081900360640190fd5b600a546040516000916001600160a01b0316907f8be0079c531659141344cd1fd0a4f28419497f9722a3daafe3b4186f6b6457e0908390a3600a80546001600160a01b0319169055565b600a546001600160a01b031690565b60078054604080516020601f60026000196101006001881615020190951694909404938401819004810282018101909252828152606093909290918301828280156106c25780601f10610697576101008083540402835291602001916106c2565b610bbd6111e2565b6001600160a01b0316826001600160a01b03161415610c23576040805162461bcd60e51b815260206004820152601960248201527f4552433732313a20617070726f766520746f2063616c6c657200000000000000604482015290519081900360640190fd5b8060056000610c306111e2565b6001600160a01b03908116825260208083019390935260409182016000908120918716808252919093529120805460ff191692151592909217909155610c746111e2565b6001600160a01b03167f17307eab39ab6107e8899845ad3d59bd9653f200f220920489ca2b5937696c318360405180821515815260200191505060405180910390a35050565b610ccb610cc56111e2565b8361125f565b610d065760405162461bcd60e51b81526004018080602001828103825260318152602001806120796031913960400191505060405180910390fd5b610d12848484846115cf565b50505050565b6060610d23826111d5565b610d5e5760405162461bcd60e51b815260040180806020018281038252602f815260200180612029602f913960400191505060405180910390fd5b60008281526008602090815260408083208054825160026001831615610100026000190190921691909104601f810185900485028201850190935282815292909190830182828015610df15780601f10610dc657610100808354040283529160200191610df1565b820191906000526020600020905b815481529060010190602001808311610dd457829003601f168201915b505050505090506000610e026109d0565b9050805160001415610e1657509050610631565b815115610ed75780826040516020018083805190602001908083835b60208310610e515780518252601f199092019160209182019101610e32565b51815160209384036101000a600019018019909216911617905285519190930192850191508083835b60208310610e995780518252601f199092019160209182019101610e7a565b6001836020036101000a0380198251168184511680821785525050505050509050019250505060405160208183030381529060405292505050610631565b80610ee185611621565b6040516020018083805190602001908083835b60208310610f135780518252601f199092019160209182019101610ef4565b51815160209384036101000a600019018019909216911617905285519190930192850191508083835b60208310610f5b5780518252601f199092019160209182019101610f3c565b6001836020036101000a0380198251168184511680821785525050505050509050019250505060405160208183030381529060405292505050919050565b6001600160a01b03918216600090815260056020908152604080832093909416825291909152205460ff1690565b610fcf6111e2565b6001600160a01b0316610fe0610b45565b6001600160a01b031614611029576040805162461bcd60e51b81526020600482018190526024820152600080516020611fe0833981519152604482015290519081900360640190fd5b6001600160a01b03811661106e5760405162461bcd60e51b8152600401808060200182810382526026815260200180611e916026913960400191505060405180910390fd5b600a546040516001600160a01b038084169216907f8be0079c531659141344cd1fd0a4f28419497f9722a3daafe3b4186f6b6457e090600090a3600a80546001600160a01b0319166001600160a01b0392909216919091179055565b6110d26111e2565b6001600160a01b03166110e3610b45565b6001600160a01b03161461112c576040805162461bcd60e51b81526020600482018190526024820152600080516020611fe0833981519152604482015290519081900360640190fd5b6001600160a01b038116611179576040805162461bcd60e51b815260206004820152600f60248201526e496e76616c6964206164647265737360881b604482015290519081900360640190fd5b600b546040516001600160a01b038084169216907f3b0007eb941cf645526cbb3a4fdaecda9d28ce4843167d9263b536a1f1edc0f690600090a3600b80546001600160a01b0319166001600160a01b0392909216919091179055565b60006108a56002836116fc565b3390565b600081815260046020526040902080546001600160a01b0319166001600160a01b038416908117909155819061121b826109a8565b6001600160a01b03167f8c5be1e5ebec7d5bd14f71427d1e84f3dd0314c0f7b2291e5b200ac8c7c3b92560405160405180910390a45050565b60006108a582611708565b600061126a826111d5565b6112a55760405162461bcd60e51b815260040180806020018281038252602c815260200180611edb602c913960400191505060405180910390fd5b60006112b0836109a8565b9050806001600160a01b0316846001600160a01b031614806112eb5750836001600160a01b03166112e0846106db565b6001600160a01b0316145b806112fb57506112fb8185610f99565b949350505050565b826001600160a01b0316611316826109a8565b6001600160a01b03161461135b5760405162461bcd60e51b81526004018080602001828103825260298152602001806120006029913960400191505060405180910390fd5b6001600160a01b0382166113a05760405162461bcd60e51b8152600401808060200182810382526024815260200180611eb76024913960400191505060405180910390fd5b6113ab838383610813565b6113b66000826111e6565b6001600160a01b03831660009081526001602052604090206113d8908261170c565b506001600160a01b03821660009081526001602052604090206113fb9082611718565b5061140860028284611724565b5080826001600160a01b0316846001600160a01b03167fddf252ad1be2c89b69c2b068fc378daa952ba7f163c4a11628f55a4df523b3ef60405160405180910390a4505050565b60006108a2838361173a565b6001600160a01b0382166114b6576040805162461bcd60e51b815260206004820181905260248201527f4552433732313a206d696e7420746f20746865207a65726f2061646472657373604482015290519081900360640190fd5b6114bf816111d5565b15611511576040805162461bcd60e51b815260206004820152601c60248201527f4552433732313a20746f6b656e20616c7265616479206d696e74656400000000604482015290519081900360640190fd5b61151d60008383610813565b6001600160a01b038216600090815260016020526040902061153f9082611718565b5061154c60028284611724565b5060405181906001600160a01b038416906000907fddf252ad1be2c89b69c2b068fc378daa952ba7f163c4a11628f55a4df523b3ef908290a45050565b6000808080611598868661179e565b9097909650945050505050565b8051610905906009906020840190611d9b565b60006115c5848484611819565b90505b9392505050565b6115da848484611303565b6115e6848484846118e3565b610d125760405162461bcd60e51b8152600401808060200182810382526032815260200180611e5f6032913960400191505060405180910390fd5b60608161164657506040805180820190915260018152600360fc1b6020820152610631565b8160005b811561165e57600101600a8204915061164a565b60008167ffffffffffffffff8111801561167757600080fd5b506040519080825280601f01601f1916602001820160405280156116a2576020820181803683370190505b50859350905060001982015b83156116f357600a840660300160f81b828280600190039350815181106116d157fe5b60200101906001600160f81b031916908160001a905350600a840493506116ae565b50949350505050565b60006108a28383611a4b565b5490565b60006108a28383611a63565b60006108a28383611b29565b60006115c584846001600160a01b038516611b73565b8154600090821061177c5760405162461bcd60e51b8152600401808060200182810382526022815260200180611e3d6022913960400191505060405180910390fd5b82600001828154811061178b57fe5b9060005260206000200154905092915050565b8154600090819083106117e25760405162461bcd60e51b8152600401808060200182810382526022815260200180611f926022913960400191505060405180910390fd5b60008460000184815481106117f357fe5b906000526020600020906002020190508060000154816001015492509250509250929050565b600082815260018401602052604081205482816118b45760405162461bcd60e51b81526004018080602001828103825283818151815260200191508051906020019080838360005b83811015611879578181015183820152602001611861565b50505050905090810190601f1680156118a65780820380516001836020036101000a031916815260200191505b509250505060405180910390fd5b508460000160018203815481106118c757fe5b9060005260206000209060020201600101549150509392505050565b60006118f7846001600160a01b0316611c0a565b611903575060016112fb565b6000611a11630a85bd0160e11b6119186111e2565b88878760405160240180856001600160a01b03168152602001846001600160a01b0316815260200183815260200180602001828103825283818151815260200191508051906020019080838360005b8381101561197f578181015183820152602001611967565b50505050905090810190601f1680156119ac5780820380516001836020036101000a031916815260200191505b5095505050505050604051602081830303815290604052906001600160e01b0319166020820180516001600160e01b038381831617835250505050604051806060016040528060328152602001611e5f603291396001600160a01b0388169190611c10565b90506000818060200190516020811015611a2a57600080fd5b50516001600160e01b031916630a85bd0160e11b1492505050949350505050565b60009081526001919091016020526040902054151590565b60008181526001830160205260408120548015611b1f5783546000198083019190810190600090879083908110611a9657fe5b9060005260206000200154905080876000018481548110611ab357fe5b600091825260208083209091019290925582815260018981019092526040902090840190558654879080611ae357fe5b600190038181906000526020600020016000905590558660010160008781526020019081526020016000206000905560019450505050506108a5565b60009150506108a5565b6000611b358383611a4b565b611b6b575081546001818101845560008481526020808220909301849055845484825282860190935260409020919091556108a5565b5060006108a5565b600082815260018401602052604081205480611bd85750506040805180820182528381526020808201848152865460018181018955600089815284812095516002909302909501918255915190820155865486845281880190925292909120556115c8565b82856000016001830381548110611beb57fe5b90600052602060002090600202016001018190555060009150506115c8565b3b151590565b60606115c5848460008585611c2485611c0a565b611c75576040805162461bcd60e51b815260206004820152601d60248201527f416464726573733a2063616c6c20746f206e6f6e2d636f6e7472616374000000604482015290519081900360640190fd5b600080866001600160a01b031685876040518082805190602001908083835b60208310611cb35780518252601f199092019160209182019101611c94565b6001836020036101000a03801982511681845116808217855250505050505090500191505060006040518083038185875af1925050503d8060008114611d15576040519150601f19603f3d011682016040523d82523d6000602084013e611d1a565b606091505b5091509150611d2a828286611d35565b979650505050505050565b60608315611d445750816115c8565b825115611d545782518084602001fd5b60405162461bcd60e51b8152602060048201818152845160248401528451859391928392604401919085019080838360008315611879578181015183820152602001611861565b828054600181600116156101000203166002900490600052602060002090601f016020900481019282611dd15760008555611e17565b82601f10611dea57805160ff1916838001178555611e17565b82800160010185558215611e17579182015b82811115611e17578251825591602001919060010190611dfc565b50611e23929150611e27565b5090565b5b80821115611e235760008155600101611e2856fe456e756d657261626c655365743a20696e646578206f7574206f6620626f756e64734552433732313a207472616e7366657220746f206e6f6e20455243373231526563656976657220696d706c656d656e7465724f776e61626c653a206e6577206f776e657220697320746865207a65726f20616464726573734552433732313a207472616e7366657220746f20746865207a65726f20616464726573734552433732313a206f70657261746f7220717565727920666f72206e6f6e6578697374656e7420746f6b656e4552433732313a20617070726f76652063616c6c6572206973206e6f74206f776e6572206e6f7220617070726f76656420666f7220616c6c4552433732313a2062616c616e636520717565727920666f7220746865207a65726f20616464726573734552433732313a206f776e657220717565727920666f72206e6f6e6578697374656e7420746f6b656e456e756d657261626c654d61703a20696e646578206f7574206f6620626f756e64734552433732313a20617070726f76656420717565727920666f72206e6f6e6578697374656e7420746f6b656e4f776e61626c653a2063616c6c6572206973206e6f7420746865206f776e65724552433732313a207472616e73666572206f6620746f6b656e2074686174206973206e6f74206f776e4552433732314d657461646174613a2055524920717565727920666f72206e6f6e6578697374656e7420746f6b656e4552433732313a20617070726f76616c20746f2063757272656e74206f776e65724552433732313a207472616e736665722063616c6c6572206973206e6f74206f776e6572206e6f7220617070726f766564a26469706673582212200367a6b57bb6009c4e57b8aae695e9d74e1cffcfabeecb441c9c8f3b0500841264736f6c63430007060033",
  "linkReferences": {},
  "deployedLinkReferences": {}
}