{
  "_format": "hh-sol-artifact-1",
  "contractName": "NFTPresaleManager",
  "sourceName": "contracts/NFTPresaleManager.sol",
  "abi": [
    {
      "inputs": [
        {
          "internalType": "address",
          "name": "_nftContract",
          "type": "address"
        },
        {
          "internalType": "uint256",
          "name": "_maxNFTPerWallet",
          "type": "uint256"
        },
        {
          "internalType": "address",
          "name": "_adminAddress",
          "type": "address"
        }
      ],
      "stateMutability": "nonpayable",
      "type": "constructor"
    },
    {
      "inputs": [],
      "name": "InvalidShortString",
      "type": "error"
    },
    {
      "inputs": [
        {
          "internalType": "string",
          "name": "str",
          "type": "string"
        }
      ],
      "name": "StringTooLong",
      "type": "error"
    },
    {
      "anonymous": false,
      "inputs": [],
      "name": "EIP712DomainChanged",
      "type": "event"
    },
    {
      "anonymous": false,
      "inputs": [
        {
          "indexed": false,
          "internalType": "uint256",
          "name": "roundId",
          "type": "uint256"
        },
        {
          "indexed": false,
          "internalType": "uint256",
          "name": "maxNFTPerWallet",
          "type": "uint256"
        }
      ],
      "name": "MaxNFTPerWalletUpdated",
      "type": "event"
    },
    {
      "anonymous": false,
      "inputs": [
        {
          "indexed": true,
          "internalType": "address",
          "name": "buyer",
          "type": "address"
        },
        {
          "indexed": false,
          "internalType": "uint256",
          "name": "tokenId",
          "type": "uint256"
        }
      ],
      "name": "NFTPurchased",
      "type": "event"
    },
    {
      "anonymous": false,
      "inputs": [
        {
          "indexed": true,
          "internalType": "address",
          "name": "previousOwner",
          "type": "address"
        },
        {
          "indexed": true,
          "internalType": "address",
          "name": "newOwner",
          "type": "address"
        }
      ],
      "name": "OwnershipTransferred",
      "type": "event"
    },
    {
      "anonymous": false,
      "inputs": [
        {
          "indexed": true,
          "internalType": "address",
          "name": "token",
          "type": "address"
        },
        {
          "indexed": false,
          "internalType": "bool",
          "name": "accepted",
          "type": "bool"
        }
      ],
      "name": "PaymentTokenUpdated",
      "type": "event"
    },
    {
      "anonymous": false,
      "inputs": [
        {
          "indexed": true,
          "internalType": "address",
          "name": "referrer",
          "type": "address"
        },
        {
          "indexed": true,
          "internalType": "address",
          "name": "buyer",
          "type": "address"
        },
        {
          "indexed": false,
          "internalType": "uint256",
          "name": "amount",
          "type": "uint256"
        }
      ],
      "name": "ReferralCommissionPaid",
      "type": "event"
    },
    {
      "anonymous": false,
      "inputs": [
        {
          "indexed": true,
          "internalType": "address",
          "name": "account",
          "type": "address"
        }
      ],
      "name": "RemovedFromWhitelist",
      "type": "event"
    },
    {
      "anonymous": false,
      "inputs": [
        {
          "indexed": true,
          "internalType": "uint256",
          "name": "roundId",
          "type": "uint256"
        }
      ],
      "name": "SaleRoundCreated",
      "type": "event"
    },
    {
      "anonymous": false,
      "inputs": [
        {
          "indexed": true,
          "internalType": "address",
          "name": "account",
          "type": "address"
        }
      ],
      "name": "Whitelisted",
      "type": "event"
    },
    {
      "inputs": [],
      "name": "REFERRAL_COMMISSION",
      "outputs": [
        {
          "internalType": "uint256",
          "name": "",
          "type": "uint256"
        }
      ],
      "stateMutability": "view",
      "type": "function"
    },
    {
      "inputs": [
        {
          "internalType": "address",
          "name": "",
          "type": "address"
        }
      ],
      "name": "acceptedPaymentTokens",
      "outputs": [
        {
          "internalType": "bool",
          "name": "",
          "type": "bool"
        }
      ],
      "stateMutability": "view",
      "type": "function"
    },
    {
      "inputs": [
        {
          "internalType": "address",
          "name": "account",
          "type": "address"
        }
      ],
      "name": "addToWhitelist",
      "outputs": [],
      "stateMutability": "nonpayable",
      "type": "function"
    },
    {
      "inputs": [
        {
          "internalType": "address[]",
          "name": "accounts",
          "type": "address[]"
        }
      ],
      "name": "addToWhitelistBatch",
      "outputs": [],
      "stateMutability": "nonpayable",
      "type": "function"
    },
    {
      "inputs": [],
      "name": "adminAddress",
      "outputs": [
        {
          "internalType": "address",
          "name": "",
          "type": "address"
        }
      ],
      "stateMutability": "view",
      "type": "function"
    },
    {
      "inputs": [
        {
          "internalType": "bytes",
          "name": "",
          "type": "bytes"
        }
      ],
      "name": "blackListSignature",
      "outputs": [
        {
          "internalType": "bool",
          "name": "",
          "type": "bool"
        }
      ],
      "stateMutability": "view",
      "type": "function"
    },
    {
      "inputs": [
        {
          "internalType": "uint256",
          "name": "_roundId",
          "type": "uint256"
        },
        {
          "internalType": "address",
          "name": "_paymentToken",
          "type": "address"
        },
        {
          "internalType": "uint256",
          "name": "_quantity",
          "type": "uint256"
        },
        {
          "internalType": "bytes",
          "name": "_signature",
          "type": "bytes"
        },
        {
          "internalType": "address",
          "name": "_referrer",
          "type": "address"
        },
        {
          "internalType": "uint256",
          "name": "createdAt",
          "type": "uint256"
        }
      ],
      "name": "buyNFTWithReferral",
      "outputs": [],
      "stateMutability": "nonpayable",
      "type": "function"
    },
    {
      "inputs": [
        {
          "internalType": "uint256",
          "name": "_startTime",
          "type": "uint256"
        },
        {
          "internalType": "uint256",
          "name": "_endTime",
          "type": "uint256"
        },
        {
          "internalType": "uint256",
          "name": "_maxSupply",
          "type": "uint256"
        },
        {
          "internalType": "uint256",
          "name": "_price",
          "type": "uint256"
        },
        {
          "internalType": "bool",
          "name": "_whitelistOnly",
          "type": "bool"
        },
        {
          "internalType": "uint256",
          "name": "_maxNFTPerWalletInRound",
          "type": "uint256"
        }
      ],
      "name": "createSaleRound",
      "outputs": [],
      "stateMutability": "nonpayable",
      "type": "function"
    },
    {
      "inputs": [],
      "name": "currentRoundId",
      "outputs": [
        {
          "internalType": "uint256",
          "name": "",
          "type": "uint256"
        }
      ],
      "stateMutability": "view",
      "type": "function"
    },
    {
      "inputs": [],
      "name": "eip712Domain",
      "outputs": [
        {
          "internalType": "bytes1",
          "name": "fields",
          "type": "bytes1"
        },
        {
          "internalType": "string",
          "name": "name",
          "type": "string"
        },
        {
          "internalType": "string",
          "name": "version",
          "type": "string"
        },
        {
          "internalType": "uint256",
          "name": "chainId",
          "type": "uint256"
        },
        {
          "internalType": "address",
          "name": "verifyingContract",
          "type": "address"
        },
        {
          "internalType": "bytes32",
          "name": "salt",
          "type": "bytes32"
        },
        {
          "internalType": "uint256[]",
          "name": "extensions",
          "type": "uint256[]"
        }
      ],
      "stateMutability": "view",
      "type": "function"
    },
    {
      "inputs": [
        {
          "internalType": "uint256",
          "name": "_roundId",
          "type": "uint256"
        }
      ],
      "name": "getRoundInfo",
      "outputs": [
        {
          "internalType": "uint256",
          "name": "id",
          "type": "uint256"
        },
        {
          "internalType": "uint256",
          "name": "startTime",
          "type": "uint256"
        },
        {
          "internalType": "uint256",
          "name": "endTime",
          "type": "uint256"
        },
        {
          "internalType": "uint256",
          "name": "maxSupply",
          "type": "uint256"
        },
        {
          "internalType": "uint256",
          "name": "price",
          "type": "uint256"
        },
        {
          "internalType": "bool",
          "name": "whitelistOnly",
          "type": "bool"
        },
        {
          "internalType": "uint256",
          "name": "totalMintedInRound",
          "type": "uint256"
        },
        {
          "internalType": "uint256",
          "name": "maxNFTPerWalletInRound",
          "type": "uint256"
        },
        {
          "internalType": "uint256",
          "name": "walletMinted",
          "type": "uint256"
        }
      ],
      "stateMutability": "view",
      "type": "function"
    },
    {
      "inputs": [
        {
          "internalType": "address",
          "name": "_userAddr",
          "type": "address"
        },
        {
          "components": [
            {
              "internalType": "address",
              "name": "referrer",
              "type": "address"
            },
            {
              "internalType": "uint256",
              "name": "createdAt",
              "type": "uint256"
            }
          ],
          "internalType": "struct NFTPresaleManager.ReferrerSignatureHashInfo",
          "name": "data",
          "type": "tuple"
        }
      ],
      "name": "hashSignature",
      "outputs": [
        {
          "internalType": "bytes32",
          "name": "",
          "type": "bytes32"
        }
      ],
      "stateMutability": "view",
      "type": "function"
    },
    {
      "inputs": [],
      "name": "maxNFTPerWallet",
      "outputs": [
        {
          "internalType": "uint256",
          "name": "",
          "type": "uint256"
        }
      ],
      "stateMutability": "view",
      "type": "function"
    },
    {
      "inputs": [],
      "name": "nftContract",
      "outputs": [
        {
          "internalType": "contract IERC721Mintable",
          "name": "",
          "type": "address"
        }
      ],
      "stateMutability": "view",
      "type": "function"
    },
    {
      "inputs": [],
      "name": "owner",
      "outputs": [
        {
          "internalType": "address",
          "name": "",
          "type": "address"
        }
      ],
      "stateMutability": "view",
      "type": "function"
    },
    {
      "inputs": [
        {
          "internalType": "address",
          "name": "account",
          "type": "address"
        }
      ],
      "name": "removeFromWhitelist",
      "outputs": [],
      "stateMutability": "nonpayable",
      "type": "function"
    },
    {
      "inputs": [],
      "name": "renounceOwnership",
      "outputs": [],
      "stateMutability": "nonpayable",
      "type": "function"
    },
    {
      "inputs": [
        {
          "internalType": "uint256",
          "name": "",
          "type": "uint256"
        }
      ],
      "name": "saleRounds",
      "outputs": [
        {
          "internalType": "uint256",
          "name": "id",
          "type": "uint256"
        },
        {
          "internalType": "uint256",
          "name": "startTime",
          "type": "uint256"
        },
        {
          "internalType": "uint256",
          "name": "endTime",
          "type": "uint256"
        },
        {
          "internalType": "uint256",
          "name": "maxSupply",
          "type": "uint256"
        },
        {
          "internalType": "uint256",
          "name": "price",
          "type": "uint256"
        },
        {
          "internalType": "bool",
          "name": "whitelistOnly",
          "type": "bool"
        },
        {
          "internalType": "uint256",
          "name": "totalMinted",
          "type": "uint256"
        },
        {
          "internalType": "uint256",
          "name": "maxNFTPerWalletInRound",
          "type": "uint256"
        },
        {
          "internalType": "bool",
          "name": "isRoundEnded",
          "type": "bool"
        }
      ],
      "stateMutability": "view",
      "type": "function"
    },
    {
      "inputs": [
        {
          "internalType": "uint256",
          "name": "_maxNFTPerWallet",
          "type": "uint256"
        }
      ],
      "name": "setMaxNFTPerWallet",
      "outputs": [],
      "stateMutability": "nonpayable",
      "type": "function"
    },
    {
      "inputs": [
        {
          "internalType": "uint256",
          "name": "_roundId",
          "type": "uint256"
        },
        {
          "internalType": "uint256",
          "name": "_maxNFTPerWallet",
          "type": "uint256"
        }
      ],
      "name": "setMaxNFTPerWallet",
      "outputs": [],
      "stateMutability": "nonpayable",
      "type": "function"
    },
    {
      "inputs": [
        {
          "internalType": "address",
          "name": "_token",
          "type": "address"
        },
        {
          "internalType": "bool",
          "name": "_accepted",
          "type": "bool"
        }
      ],
      "name": "setPaymentToken",
      "outputs": [],
      "stateMutability": "nonpayable",
      "type": "function"
    },
    {
      "inputs": [
        {
          "internalType": "uint256",
          "name": "_roundId",
          "type": "uint256"
        },
        {
          "internalType": "bool",
          "name": "status",
          "type": "bool"
        }
      ],
      "name": "setRoundEnd",
      "outputs": [],
      "stateMutability": "nonpayable",
      "type": "function"
    },
    {
      "inputs": [],
      "name": "totalMinted",
      "outputs": [
        {
          "internalType": "uint256",
          "name": "",
          "type": "uint256"
        }
      ],
      "stateMutability": "view",
      "type": "function"
    },
    {
      "inputs": [
        {
          "internalType": "address",
          "name": "newOwner",
          "type": "address"
        }
      ],
      "name": "transferOwnership",
      "outputs": [],
      "stateMutability": "nonpayable",
      "type": "function"
    },
    {
      "inputs": [
        {
          "internalType": "address",
          "name": "",
          "type": "address"
        }
      ],
      "name": "whitelisted",
      "outputs": [
        {
          "internalType": "bool",
          "name": "",
          "type": "bool"
        }
      ],
      "stateMutability": "view",
      "type": "function"
    },
    {
      "inputs": [
        {
          "internalType": "address",
          "name": "_token",
          "type": "address"
        }
      ],
      "name": "withdrawFunds",
      "outputs": [],
      "stateMutability": "nonpayable",
      "type": "function"
    }
  ],
  "bytecode": "0x6101606040523480156200001257600080fd5b50604051620027ea380380620027ea833981016040819052620000359162000317565b604051806040016040528060078152602001664e465453616c6560c81b815250604051806040016040528060018152602001603160f81b81525062000089620000836200022a60201b60201c565b6200022e565b620000968260016200027e565b61012052620000a78160026200027e565b61014052815160208084019190912060e052815190820120610100524660a0526200013560e05161010051604080517f8b73c3c69bb8fe3d512ecc4cf759cc79239f7b179b0ffacaa9a75d522b39400f60208201529081019290925260608201524660808201523060a082015260009060c00160405160208183030381529060405280519060200120905090565b60805250503060c0526001600160a01b0383163b6200019b5760405162461bcd60e51b815260206004820152601c60248201527f496e76616c6964204e465420636f6e747261637420616464726573730000000060448201526064015b60405180910390fd5b60008211620001ed5760405162461bcd60e51b815260206004820152601a60248201527f496e76616c6964206d6178204e4654207065722077616c6c6574000000000000604482015260640162000192565b600380546001600160a01b039485166001600160a01b0319918216179091556006929092556000600555600480549190931691161790556200053e565b3390565b600080546001600160a01b038381166001600160a01b0319831681178455604051919092169283917f8be0079c531659141344cd1fd0a4f28419497f9722a3daafe3b4186f6b6457e09190a35050565b60006020835110156200029e576200029683620002b7565b9050620002b1565b81620002ab8482620003fd565b5060ff90505b92915050565b600080829050601f81511115620002e5578260405163305a27a960e01b8152600401620001929190620004c9565b8051620002f28262000519565b179392505050565b80516001600160a01b03811681146200031257600080fd5b919050565b6000806000606084860312156200032d57600080fd5b6200033884620002fa565b9250602084015191506200034f60408501620002fa565b90509250925092565b634e487b7160e01b600052604160045260246000fd5b600181811c908216806200038357607f821691505b602082108103620003a457634e487b7160e01b600052602260045260246000fd5b50919050565b601f821115620003f857600081815260208120601f850160051c81016020861015620003d35750805b601f850160051c820191505b81811015620003f457828155600101620003df565b5050505b505050565b81516001600160401b0381111562000419576200041962000358565b62000431816200042a84546200036e565b84620003aa565b602080601f831160018114620004695760008415620004505750858301515b600019600386901b1c1916600185901b178555620003f4565b600085815260208120601f198616915b828110156200049a5788860151825594840194600190910190840162000479565b5085821015620004b95787850151600019600388901b60f8161c191681555b5050505050600190811b01905550565b600060208083528351808285015260005b81811015620004f857858101830151858201604001528201620004da565b506000604082860101526040601f19601f8301168501019250505092915050565b80516020808301519190811015620003a45760001960209190910360031b1b16919050565b60805160a05160c05160e0516101005161012051610140516122516200059960003960006107480152600061071d015260006119b901526000611991015260006118ec015260006119160152600061194001526122516000f3fe608060405234801561001057600080fd5b506004361061018e5760003560e01c8063a2309ff8116100de578063d56d229d11610097578063e6b6a7c811610071578063e6b6a7c8146104aa578063f2fde38b146104bd578063f497994b146104d0578063fc6f9468146104e357600080fd5b8063d56d229d14610461578063d936547e14610474578063e43252d71461049757600080fd5b8063a2309ff81461040e578063a365f2a514610417578063a61771391461041f578063b5a3726014610432578063c7c5a8c014610445578063d2e068fd1461044e57600080fd5b806384b0196e1161014b5780638da5cb5b116101255780638da5cb5b146103ac5780639635c40a146103d15780639cbe5efd146103e45780639e115f75146103fb57600080fd5b806384b0196e146102d057806388c3ffb0146102eb5780638ab1d6811461039957600080fd5b806312f8103814610193578063430884cf146101d657806345199ce1146101eb578063484bb2441461029257806368742da6146102b5578063715018a6146102c8575b600080fd5b6101c16101a1366004611d2d565b8051602081830181018051600b8252928201919093012091525460ff1681565b60405190151581526020015b60405180910390f35b6101e96101e4366004611d8c565b6104f6565b005b61024a6101f9366004611dc3565b600a602052600090815260409020805460018201546002830154600384015460048501546005860154600687015460078801546009909801549697959694959394929360ff92831693919290911689565b60408051998a5260208a01989098529688019590955260608701939093526080860191909152151560a085015260c084015260e08301521515610100820152610120016101cd565b6101c16102a0366004611ddc565b60086020526000908152604090205460ff1681565b6101e96102c3366004611ddc565b6105b1565b6101e96106fb565b6102d861070f565b6040516101cd9796959493929190611e47565b6103536102f9366004611dc3565b6000908152600a6020908152604080832080546001820154600283015460038401546004850154600586015460068701546007880154338c52600890980190995296909820549398929791969095919460ff909216939092565b60408051998a5260208a01989098529688019590955260608701939093526080860191909152151560a085015260c084015260e0830152610100820152610120016101cd565b6101e96103a7366004611ddc565b610798565b6000546001600160a01b03165b6040516001600160a01b0390911681526020016101cd565b6101e96103df366004611edd565b6107e9565b6103ed60055481565b6040519081526020016101cd565b6103ed610409366004611f57565b610f3d565b6103ed60075481565b6103ed600581565b6101e961042d366004611fd0565b610f9c565b6101e9610440366004611dc3565b611077565b6103ed60065481565b6101e961045c366004612045565b6110d4565b6003546103b9906001600160a01b031681565b6101c1610482366004611ddc565b60096020526000908152604090205460ff1681565b6101e96104a5366004611ddc565b6110ff565b6101e96104b836600461206a565b611153565b6101e96104cb366004611ddc565b611331565b6101e96104de3660046120bf565b6113aa565b6004546103b9906001600160a01b031681565b6104fe611457565b6001600160a01b0382163b6105525760405162461bcd60e51b8152602060048201526015602482015274496e76616c696420746f6b656e206164647265737360581b60448201526064015b60405180910390fd5b6001600160a01b038216600081815260086020908152604091829020805460ff191685151590811790915591519182527f19c6e2fbd27c3204efb106f0081d2d7ffaf44da224ca04fbc0d8a262ba40f555910160405180910390a25050565b6105b9611457565b6001600160a01b038116600090815260086020526040902054819060ff166106235760405162461bcd60e51b815260206004820152601a60248201527f5061796d656e7420746f6b656e206e6f742061636365707465640000000000006044820152606401610549565b6040516370a0823160e01b815230600482015282906000906001600160a01b038316906370a0823190602401602060405180830381865afa15801561066c573d6000803e3d6000fd5b505050506040513d601f19601f8201168201806040525081019061069091906120e1565b9050600081116106d95760405162461bcd60e51b81526020600482015260146024820152734e6f2066756e647320746f20776974686472617760601b6044820152606401610549565b6106f5846106ef6000546001600160a01b031690565b836114b1565b50505050565b610703611457565b61070d60006115cc565b565b6000606080828080836107437f0000000000000000000000000000000000000000000000000000000000000000600161161c565b61076e7f0000000000000000000000000000000000000000000000000000000000000000600261161c565b60408051600080825260208201909252600f60f81b9b939a50919850469750309650945092509050565b6107a0611457565b6001600160a01b038116600081815260096020526040808220805460ff19169055517fcdd2e9b91a56913d370075169cefa1602ba36be5301664f752192bb1709df7579190a250565b6003546001600160a01b03166108385760405162461bcd60e51b81526020600482015260146024820152731391950818dbdb9d1c9858dd081b9bdd081cd95d60621b6044820152606401610549565b6001600160a01b038516600090815260086020526040902054859060ff166108a25760405162461bcd60e51b815260206004820152601a60248201527f5061796d656e7420746f6b656e206e6f742061636365707465640000000000006044820152606401610549565b83600b816040516108b391906120fa565b9081526040519081900360200190205460ff16156109135760405162461bcd60e51b815260206004820181905260248201527f4f6e6c79207369676e617475726520686173206e6f74206265656e20757365646044820152606401610549565b604080518082019091526001600160a01b038516815260208101849052600061093c82886116c7565b90506001600b8860405161095091906120fa565b908152604051908190036020019020805491151560ff199092169190911790556004546001600160a01b038281169116146109c55760405162461bcd60e51b8152602060048201526015602482015274496e76616c696420696e707574206164647265737360581b6044820152606401610549565b6109d18561012c61212c565b4210610a165760405162461bcd60e51b815260206004820152601460248201527314da59db985d1d5c99481a5cc8195e1c1a5c995960621b6044820152606401610549565b6001600160a01b038616610a6c5760405162461bcd60e51b815260206004820152601860248201527f496e76616c6964207265666572726572206164647265737300000000000000006044820152606401610549565b60008a8152600a602052604090208054610ab85760405162461bcd60e51b815260206004820152600d60248201526c125b9d985b1a59081c9bdd5b99609a1b6044820152606401610549565b8060010154421015610b005760405162461bcd60e51b8152602060048201526011602482015270149bdd5b99081b9bdd081cdd185c9d1959607a1b6044820152606401610549565b8060020154421115610b425760405162461bcd60e51b815260206004820152600b60248201526a149bdd5b9908195b99195960aa1b6044820152606401610549565b8060030154816006015410610b995760405162461bcd60e51b815260206004820152601860248201527f526f756e64206d617820737570706c79207265616368656400000000000000006044820152606401610549565b600981015460ff1615610bdc5760405162461bcd60e51b815260206004820152600b60248201526a149bdd5b9908195b99195960aa1b6044820152606401610549565b600581015460ff1615610c3a573360009081526009602052604090205460ff16610c3a5760405162461bcd60e51b815260206004820152600f60248201526e139bdd081dda1a5d195b1a5cdd1959608a1b6044820152606401610549565b6006546003546040516370a0823160e01b81523360048201528b916001600160a01b0316906370a0823190602401602060405180830381865afa158015610c85573d6000803e3d6000fd5b505050506040513d601f19601f82011682018060405250810190610ca991906120e1565b610cb3919061212c565b1115610d105760405162461bcd60e51b815260206004820152602660248201527f576f756c642065786365656420676c6f62616c206d6178204e465420706572206044820152651dd85b1b195d60d21b6064820152608401610549565b6007810154336000908152600883016020526040902054610d32908b9061212c565b1115610d8e5760405162461bcd60e51b815260206004820152602560248201527f576f756c642065786365656420726f756e64206d6178204e4654207065722077604482015264185b1b195d60da1b6064820152608401610549565b6000898260040154610da0919061213f565b905060006064610db160058461213f565b610dbb9190612156565b9050610dc98c33308561171f565b610dd48c8a836114b1565b60005b8b811015610eed5760006007546001610df0919061212c565b600780549192506000610e0283612178565b9091555050600685018054906000610e1983612178565b90915550506003546040516340c10f1960e01b8152336004820152602481018390526001600160a01b03909116906340c10f1990604401600060405180830381600087803b158015610e6a57600080fd5b505af1158015610e7e573d6000803e3d6000fd5b50503360009081526008880160205260408120805493509150610ea083612178565b909155505060405181815233907f7f8aed29394d49180b299699236f142fbd3a78f6d1464929dd17e87b73ebc8d29060200160405180910390a25080610ee581612178565b915050610dd7565b5060405181815233906001600160a01b038b16907f86ddab457291316e0f5496737e5ca67c4037234c32c3be04c48ae96186893a7b9060200160405180910390a350505050505050505050505050565b604080516001600160a01b0380851660208084019190915230938301939093528351166060820152908201516080820152600090610f939060a0016040516020818303038152906040528051906020012061184f565b90505b92915050565b610fa4611457565b60005b8181101561107257600160096000858585818110610fc757610fc7612191565b9050602002016020810190610fdc9190611ddc565b6001600160a01b031681526020810191909152604001600020805460ff191691151591909117905582828281811061101657611016612191565b905060200201602081019061102b9190611ddc565b6001600160a01b03167faab7954e9d246b167ef88aeddad35209ca2489d95a8aeb59e288d9b19fae5a5460405160405180910390a28061106a81612178565b915050610fa7565b505050565b61107f611457565b600081116110cf5760405162461bcd60e51b815260206004820152601a60248201527f496e76616c6964206d6178204e4654207065722077616c6c65740000000000006044820152606401610549565b600655565b6110dc611457565b6000918252600a6020526040909120600901805460ff1916911515919091179055565b611107611457565b6001600160a01b038116600081815260096020526040808220805460ff19166001179055517faab7954e9d246b167ef88aeddad35209ca2489d95a8aeb59e288d9b19fae5a549190a250565b61115b611457565b8486106111aa5760405162461bcd60e51b815260206004820152601860248201527f5374617274206d757374206265206265666f726520656e6400000000000000006044820152606401610549565b600084116111ef5760405162461bcd60e51b8152602060048201526012602482015271496e76616c6964206d617820737570706c7960701b6044820152606401610549565b6000831161122f5760405162461bcd60e51b815260206004820152600d60248201526c496e76616c696420707269636560981b6044820152606401610549565b6000811161128b5760405162461bcd60e51b815260206004820152602360248201527f496e76616c6964206d6178204e4654207065722077616c6c657420696e20726f6044820152621d5b9960ea1b6064820152608401610549565b6005805490600061129b83612178565b9091555050600580546000818152600a6020526040808220928355600183018a9055600283018990556003830188905560048301879055828401805487151560ff199182161790915560068401839055600784018690556009840180549091169055925492519192917fa678db96b3cef44cebd44ad25b4a0518d5fe891d2b92341f31adc288b84a91379190a250505050505050565b611339611457565b6001600160a01b03811661139e5760405162461bcd60e51b815260206004820152602660248201527f4f776e61626c653a206e6577206f776e657220697320746865207a65726f206160448201526564647265737360d01b6064820152608401610549565b6113a7816115cc565b50565b6113b2611457565b600081116114025760405162461bcd60e51b815260206004820152601a60248201527f496e76616c6964206d6178204e4654207065722077616c6c65740000000000006044820152606401610549565b6000828152600a6020908152604091829020600781018490558251858152918201849052917f9661a815c7db8b3f4e48871cf7d74e5c190a544bfc3eee36ab2451f2dc3d2503910160405180910390a1505050565b6000546001600160a01b0316331461070d5760405162461bcd60e51b815260206004820181905260248201527f4f776e61626c653a2063616c6c6572206973206e6f7420746865206f776e65726044820152606401610549565b604080516001600160a01b038481166024830152604480830185905283518084039091018152606490920183526020820180516001600160e01b031663a9059cbb60e01b179052915160009283929087169161150d91906120fa565b6000604051808303816000865af19150503d806000811461154a576040519150601f19603f3d011682016040523d82523d6000602084013e61154f565b606091505b509150915081801561157957508051158061157957508080602001905181019061157991906121a7565b6115c55760405162461bcd60e51b815260206004820152601f60248201527f5472616e7366657248656c7065723a205452414e534645525f4641494c4544006044820152606401610549565b5050505050565b600080546001600160a01b038381166001600160a01b0319831681178455604051919092169283917f8be0079c531659141344cd1fd0a4f28419497f9722a3daafe3b4186f6b6457e09190a35050565b606060ff83146116365761162f8361187c565b9050610f96565b818054611642906121cb565b80601f016020809104026020016040519081016040528092919081815260200182805461166e906121cb565b80156116bb5780601f10611690576101008083540402835291602001916116bb565b820191906000526020600020905b81548152906001019060200180831161169e57829003601f168201915b50505050509050610f96565b6000806116d43385610f3d565b905061171783611711837f19457468657265756d205369676e6564204d6573736167653a0a3332000000006000908152601c91909152603c902090565b906118bb565b949350505050565b604080516001600160a01b0385811660248301528481166044830152606480830185905283518084039091018152608490920183526020820180516001600160e01b03166323b872dd60e01b179052915160009283929088169161178391906120fa565b6000604051808303816000865af19150503d80600081146117c0576040519150601f19603f3d011682016040523d82523d6000602084013e6117c5565b606091505b50915091508180156117ef5750805115806117ef5750808060200190518101906117ef91906121a7565b6118475760405162461bcd60e51b8152602060048201526024808201527f5472616e7366657248656c7065723a205452414e534645525f46524f4d5f46416044820152631253115160e21b6064820152608401610549565b505050505050565b6000610f9661185c6118df565b8360405161190160f01b8152600281019290925260228201526042902090565b6060600061188983611a0f565b604080516020808252818301909252919250600091906020820181803683375050509182525060208101929092525090565b60008060006118ca8585611a37565b915091506118d781611a7c565b509392505050565b6000306001600160a01b037f00000000000000000000000000000000000000000000000000000000000000001614801561193857507f000000000000000000000000000000000000000000000000000000000000000046145b1561196257507f000000000000000000000000000000000000000000000000000000000000000090565b611a0a604080517f8b73c3c69bb8fe3d512ecc4cf759cc79239f7b179b0ffacaa9a75d522b39400f60208201527f0000000000000000000000000000000000000000000000000000000000000000918101919091527f000000000000000000000000000000000000000000000000000000000000000060608201524660808201523060a082015260009060c00160405160208183030381529060405280519060200120905090565b905090565b600060ff8216601f811115610f9657604051632cd44ac360e21b815260040160405180910390fd5b6000808251604103611a6d5760208301516040840151606085015160001a611a6187828585611bc6565b94509450505050611a75565b506000905060025b9250929050565b6000816004811115611a9057611a90612205565b03611a985750565b6001816004811115611aac57611aac612205565b03611af95760405162461bcd60e51b815260206004820152601860248201527f45434453413a20696e76616c6964207369676e617475726500000000000000006044820152606401610549565b6002816004811115611b0d57611b0d612205565b03611b5a5760405162461bcd60e51b815260206004820152601f60248201527f45434453413a20696e76616c6964207369676e6174757265206c656e677468006044820152606401610549565b6003816004811115611b6e57611b6e612205565b036113a75760405162461bcd60e51b815260206004820152602260248201527f45434453413a20696e76616c6964207369676e6174757265202773272076616c604482015261756560f01b6064820152608401610549565b6000807f7fffffffffffffffffffffffffffffff5d576e7357a4501ddfe92f46681b20a0831115611bfd5750600090506003611c81565b6040805160008082526020820180845289905260ff881692820192909252606081018690526080810185905260019060a0016020604051602081039080840390855afa158015611c51573d6000803e3d6000fd5b5050604051601f1901519150506001600160a01b038116611c7a57600060019250925050611c81565b9150600090505b94509492505050565b634e487b7160e01b600052604160045260246000fd5b600082601f830112611cb157600080fd5b813567ffffffffffffffff80821115611ccc57611ccc611c8a565b604051601f8301601f19908116603f01168101908282118183101715611cf457611cf4611c8a565b81604052838152866020858801011115611d0d57600080fd5b836020870160208301376000602085830101528094505050505092915050565b600060208284031215611d3f57600080fd5b813567ffffffffffffffff811115611d5657600080fd5b61171784828501611ca0565b80356001600160a01b0381168114611d7957600080fd5b919050565b80151581146113a757600080fd5b60008060408385031215611d9f57600080fd5b611da883611d62565b91506020830135611db881611d7e565b809150509250929050565b600060208284031215611dd557600080fd5b5035919050565b600060208284031215611dee57600080fd5b610f9382611d62565b60005b83811015611e12578181015183820152602001611dfa565b50506000910152565b60008151808452611e33816020860160208601611df7565b601f01601f19169290920160200192915050565b60ff60f81b881681526000602060e081840152611e6760e084018a611e1b565b8381036040850152611e79818a611e1b565b606085018990526001600160a01b038816608086015260a0850187905284810360c0860152855180825283870192509083019060005b81811015611ecb57835183529284019291840191600101611eaf565b50909c9b505050505050505050505050565b60008060008060008060c08789031215611ef657600080fd5b86359550611f0660208801611d62565b945060408701359350606087013567ffffffffffffffff811115611f2957600080fd5b611f3589828a01611ca0565b935050611f4460808801611d62565b915060a087013590509295509295509295565b6000808284036060811215611f6b57600080fd5b611f7484611d62565b92506040601f1982011215611f8857600080fd5b506040516040810181811067ffffffffffffffff82111715611fac57611fac611c8a565b604052611fbb60208501611d62565b81526040939093013560208401525092909150565b60008060208385031215611fe357600080fd5b823567ffffffffffffffff80821115611ffb57600080fd5b818501915085601f83011261200f57600080fd5b81358181111561201e57600080fd5b8660208260051b850101111561203357600080fd5b60209290920196919550909350505050565b6000806040838503121561205857600080fd5b823591506020830135611db881611d7e565b60008060008060008060c0878903121561208357600080fd5b8635955060208701359450604087013593506060870135925060808701356120aa81611d7e565b8092505060a087013590509295509295509295565b600080604083850312156120d257600080fd5b50508035926020909101359150565b6000602082840312156120f357600080fd5b5051919050565b6000825161210c818460208701611df7565b9190910192915050565b634e487b7160e01b600052601160045260246000fd5b80820180821115610f9657610f96612116565b8082028115828204841417610f9657610f96612116565b60008261217357634e487b7160e01b600052601260045260246000fd5b500490565b60006001820161218a5761218a612116565b5060010190565b634e487b7160e01b600052603260045260246000fd5b6000602082840312156121b957600080fd5b81516121c481611d7e565b9392505050565b600181811c908216806121df57607f821691505b6020821081036121ff57634e487b7160e01b600052602260045260246000fd5b50919050565b634e487b7160e01b600052602160045260246000fdfea2646970667358221220bb89cf86fc3b8935a932562c686caf18821e155bf93d518cce6600651591e35d64736f6c63430008130033",
  "linkReferences": {},
  "deployedLinkReferences": {}
}