{
  "_format": "hh-sol-artifact-1",
  "contractName": "NFTPresaleManager",
  "sourceName": "contracts/NFTPresaleManager.sol",
  "abi": [
    {
      "inputs": [
        {
          "internalType": "address",
          "name": "_nftContract",
          "type": "address"
        },
        {
          "internalType": "uint256",
          "name": "_maxNFTPerWallet",
          "type": "uint256"
        },
        {
          "internalType": "address",
          "name": "_adminAddress",
          "type": "address"
        }
      ],
      "stateMutability": "nonpayable",
      "type": "constructor"
    },
    {
      "inputs": [],
      "name": "InvalidShortString",
      "type": "error"
    },
    {
      "inputs": [
        {
          "internalType": "string",
          "name": "str",
          "type": "string"
        }
      ],
      "name": "StringTooLong",
      "type": "error"
    },
    {
      "anonymous": false,
      "inputs": [],
      "name": "EIP712DomainChanged",
      "type": "event"
    },
    {
      "anonymous": false,
      "inputs": [
        {
          "indexed": true,
          "internalType": "address",
          "name": "buyer",
          "type": "address"
        },
        {
          "indexed": false,
          "internalType": "uint256",
          "name": "tokenId",
          "type": "uint256"
        }
      ],
      "name": "NFTPurchased",
      "type": "event"
    },
    {
      "anonymous": false,
      "inputs": [
        {
          "indexed": true,
          "internalType": "address",
          "name": "previousOwner",
          "type": "address"
        },
        {
          "indexed": true,
          "internalType": "address",
          "name": "newOwner",
          "type": "address"
        }
      ],
      "name": "OwnershipTransferred",
      "type": "event"
    },
    {
      "anonymous": false,
      "inputs": [
        {
          "indexed": true,
          "internalType": "address",
          "name": "token",
          "type": "address"
        },
        {
          "indexed": false,
          "internalType": "bool",
          "name": "accepted",
          "type": "bool"
        }
      ],
      "name": "PaymentTokenUpdated",
      "type": "event"
    },
    {
      "anonymous": false,
      "inputs": [
        {
          "indexed": true,
          "internalType": "address",
          "name": "referrer",
          "type": "address"
        },
        {
          "indexed": true,
          "internalType": "address",
          "name": "buyer",
          "type": "address"
        },
        {
          "indexed": false,
          "internalType": "uint256",
          "name": "amount",
          "type": "uint256"
        }
      ],
      "name": "ReferralCommissionPaid",
      "type": "event"
    },
    {
      "anonymous": false,
      "inputs": [
        {
          "indexed": true,
          "internalType": "address",
          "name": "account",
          "type": "address"
        }
      ],
      "name": "RemovedFromWhitelist",
      "type": "event"
    },
    {
      "anonymous": false,
      "inputs": [
        {
          "indexed": true,
          "internalType": "uint256",
          "name": "roundId",
          "type": "uint256"
        }
      ],
      "name": "SaleRoundCreated",
      "type": "event"
    },
    {
      "anonymous": false,
      "inputs": [
        {
          "indexed": true,
          "internalType": "address",
          "name": "account",
          "type": "address"
        }
      ],
      "name": "Whitelisted",
      "type": "event"
    },
    {
      "inputs": [],
      "name": "REFERRAL_COMMISSION",
      "outputs": [
        {
          "internalType": "uint256",
          "name": "",
          "type": "uint256"
        }
      ],
      "stateMutability": "view",
      "type": "function"
    },
    {
      "inputs": [
        {
          "internalType": "address",
          "name": "",
          "type": "address"
        }
      ],
      "name": "acceptedPaymentTokens",
      "outputs": [
        {
          "internalType": "bool",
          "name": "",
          "type": "bool"
        }
      ],
      "stateMutability": "view",
      "type": "function"
    },
    {
      "inputs": [
        {
          "internalType": "address",
          "name": "account",
          "type": "address"
        }
      ],
      "name": "addToWhitelist",
      "outputs": [],
      "stateMutability": "nonpayable",
      "type": "function"
    },
    {
      "inputs": [
        {
          "internalType": "address[]",
          "name": "accounts",
          "type": "address[]"
        }
      ],
      "name": "addToWhitelistBatch",
      "outputs": [],
      "stateMutability": "nonpayable",
      "type": "function"
    },
    {
      "inputs": [],
      "name": "adminAddress",
      "outputs": [
        {
          "internalType": "address",
          "name": "",
          "type": "address"
        }
      ],
      "stateMutability": "view",
      "type": "function"
    },
    {
      "inputs": [
        {
          "internalType": "bytes",
          "name": "",
          "type": "bytes"
        }
      ],
      "name": "blackListSignature",
      "outputs": [
        {
          "internalType": "bool",
          "name": "",
          "type": "bool"
        }
      ],
      "stateMutability": "view",
      "type": "function"
    },
    {
      "inputs": [
        {
          "internalType": "uint256",
          "name": "_roundId",
          "type": "uint256"
        },
        {
          "internalType": "address",
          "name": "_paymentToken",
          "type": "address"
        },
        {
          "internalType": "bytes",
          "name": "_signature",
          "type": "bytes"
        },
        {
          "internalType": "address",
          "name": "_referrer",
          "type": "address"
        },
        {
          "internalType": "uint256",
          "name": "createdAt",
          "type": "uint256"
        }
      ],
      "name": "buyNFTWithReferral",
      "outputs": [],
      "stateMutability": "nonpayable",
      "type": "function"
    },
    {
      "inputs": [
        {
          "internalType": "uint256",
          "name": "_startTime",
          "type": "uint256"
        },
        {
          "internalType": "uint256",
          "name": "_endTime",
          "type": "uint256"
        },
        {
          "internalType": "uint256",
          "name": "_maxSupply",
          "type": "uint256"
        },
        {
          "internalType": "uint256",
          "name": "_price",
          "type": "uint256"
        },
        {
          "internalType": "bool",
          "name": "_whitelistOnly",
          "type": "bool"
        },
        {
          "internalType": "uint256",
          "name": "_maxNFTPerWalletInRound",
          "type": "uint256"
        }
      ],
      "name": "createSaleRound",
      "outputs": [],
      "stateMutability": "nonpayable",
      "type": "function"
    },
    {
      "inputs": [],
      "name": "currentRoundId",
      "outputs": [
        {
          "internalType": "uint256",
          "name": "",
          "type": "uint256"
        }
      ],
      "stateMutability": "view",
      "type": "function"
    },
    {
      "inputs": [],
      "name": "eip712Domain",
      "outputs": [
        {
          "internalType": "bytes1",
          "name": "fields",
          "type": "bytes1"
        },
        {
          "internalType": "string",
          "name": "name",
          "type": "string"
        },
        {
          "internalType": "string",
          "name": "version",
          "type": "string"
        },
        {
          "internalType": "uint256",
          "name": "chainId",
          "type": "uint256"
        },
        {
          "internalType": "address",
          "name": "verifyingContract",
          "type": "address"
        },
        {
          "internalType": "bytes32",
          "name": "salt",
          "type": "bytes32"
        },
        {
          "internalType": "uint256[]",
          "name": "extensions",
          "type": "uint256[]"
        }
      ],
      "stateMutability": "view",
      "type": "function"
    },
    {
      "inputs": [
        {
          "internalType": "address",
          "name": "_referrer",
          "type": "address"
        }
      ],
      "name": "getReferralInfo",
      "outputs": [
        {
          "internalType": "address",
          "name": "referrer",
          "type": "address"
        },
        {
          "internalType": "uint256",
          "name": "totalCommission",
          "type": "uint256"
        }
      ],
      "stateMutability": "view",
      "type": "function"
    },
    {
      "inputs": [
        {
          "internalType": "uint256",
          "name": "_roundId",
          "type": "uint256"
        }
      ],
      "name": "getRoundInfo",
      "outputs": [
        {
          "internalType": "uint256",
          "name": "id",
          "type": "uint256"
        },
        {
          "internalType": "uint256",
          "name": "startTime",
          "type": "uint256"
        },
        {
          "internalType": "uint256",
          "name": "endTime",
          "type": "uint256"
        },
        {
          "internalType": "uint256",
          "name": "maxSupply",
          "type": "uint256"
        },
        {
          "internalType": "uint256",
          "name": "price",
          "type": "uint256"
        },
        {
          "internalType": "bool",
          "name": "whitelistOnly",
          "type": "bool"
        },
        {
          "internalType": "uint256",
          "name": "totalMintedInRound",
          "type": "uint256"
        },
        {
          "internalType": "uint256",
          "name": "maxNFTPerWalletInRound",
          "type": "uint256"
        },
        {
          "internalType": "uint256",
          "name": "walletMinted",
          "type": "uint256"
        }
      ],
      "stateMutability": "view",
      "type": "function"
    },
    {
      "inputs": [
        {
          "internalType": "address",
          "name": "_userAddr",
          "type": "address"
        },
        {
          "components": [
            {
              "internalType": "address",
              "name": "referrer",
              "type": "address"
            },
            {
              "internalType": "uint256",
              "name": "createdAt",
              "type": "uint256"
            }
          ],
          "internalType": "struct NFTPresaleManager.ReferrerSignatureHashInfo",
          "name": "data",
          "type": "tuple"
        }
      ],
      "name": "hashSignature",
      "outputs": [
        {
          "internalType": "bytes32",
          "name": "",
          "type": "bytes32"
        }
      ],
      "stateMutability": "view",
      "type": "function"
    },
    {
      "inputs": [],
      "name": "maxNFTPerWallet",
      "outputs": [
        {
          "internalType": "uint256",
          "name": "",
          "type": "uint256"
        }
      ],
      "stateMutability": "view",
      "type": "function"
    },
    {
      "inputs": [],
      "name": "nftContract",
      "outputs": [
        {
          "internalType": "contract IERC721Mintable",
          "name": "",
          "type": "address"
        }
      ],
      "stateMutability": "view",
      "type": "function"
    },
    {
      "inputs": [],
      "name": "owner",
      "outputs": [
        {
          "internalType": "address",
          "name": "",
          "type": "address"
        }
      ],
      "stateMutability": "view",
      "type": "function"
    },
    {
      "inputs": [
        {
          "internalType": "address",
          "name": "",
          "type": "address"
        }
      ],
      "name": "referrals",
      "outputs": [
        {
          "internalType": "address",
          "name": "referrer",
          "type": "address"
        },
        {
          "internalType": "uint256",
          "name": "totalCommission",
          "type": "uint256"
        }
      ],
      "stateMutability": "view",
      "type": "function"
    },
    {
      "inputs": [
        {
          "internalType": "address",
          "name": "account",
          "type": "address"
        }
      ],
      "name": "removeFromWhitelist",
      "outputs": [],
      "stateMutability": "nonpayable",
      "type": "function"
    },
    {
      "inputs": [],
      "name": "renounceOwnership",
      "outputs": [],
      "stateMutability": "nonpayable",
      "type": "function"
    },
    {
      "inputs": [
        {
          "internalType": "uint256",
          "name": "",
          "type": "uint256"
        }
      ],
      "name": "saleRounds",
      "outputs": [
        {
          "internalType": "uint256",
          "name": "id",
          "type": "uint256"
        },
        {
          "internalType": "uint256",
          "name": "startTime",
          "type": "uint256"
        },
        {
          "internalType": "uint256",
          "name": "endTime",
          "type": "uint256"
        },
        {
          "internalType": "uint256",
          "name": "maxSupply",
          "type": "uint256"
        },
        {
          "internalType": "uint256",
          "name": "price",
          "type": "uint256"
        },
        {
          "internalType": "bool",
          "name": "whitelistOnly",
          "type": "bool"
        },
        {
          "internalType": "uint256",
          "name": "totalMinted",
          "type": "uint256"
        },
        {
          "internalType": "uint256",
          "name": "maxNFTPerWalletInRound",
          "type": "uint256"
        }
      ],
      "stateMutability": "view",
      "type": "function"
    },
    {
      "inputs": [
        {
          "internalType": "uint256",
          "name": "_maxNFTPerWallet",
          "type": "uint256"
        }
      ],
      "name": "setMaxNFTPerWallet",
      "outputs": [],
      "stateMutability": "nonpayable",
      "type": "function"
    },
    {
      "inputs": [
        {
          "internalType": "address",
          "name": "_token",
          "type": "address"
        },
        {
          "internalType": "bool",
          "name": "_accepted",
          "type": "bool"
        }
      ],
      "name": "setPaymentToken",
      "outputs": [],
      "stateMutability": "nonpayable",
      "type": "function"
    },
    {
      "inputs": [],
      "name": "totalMinted",
      "outputs": [
        {
          "internalType": "uint256",
          "name": "",
          "type": "uint256"
        }
      ],
      "stateMutability": "view",
      "type": "function"
    },
    {
      "inputs": [
        {
          "internalType": "address",
          "name": "newOwner",
          "type": "address"
        }
      ],
      "name": "transferOwnership",
      "outputs": [],
      "stateMutability": "nonpayable",
      "type": "function"
    },
    {
      "inputs": [
        {
          "internalType": "address",
          "name": "",
          "type": "address"
        }
      ],
      "name": "whitelisted",
      "outputs": [
        {
          "internalType": "bool",
          "name": "",
          "type": "bool"
        }
      ],
      "stateMutability": "view",
      "type": "function"
    },
    {
      "inputs": [
        {
          "internalType": "address",
          "name": "_token",
          "type": "address"
        }
      ],
      "name": "withdrawFunds",
      "outputs": [],
      "stateMutability": "nonpayable",
      "type": "function"
    }
  ],
  "bytecode": "0x6101606040523480156200001257600080fd5b50604051620025e9380380620025e9833981016040819052620000359162000317565b604051806040016040528060078152602001664e465453616c6560c81b815250604051806040016040528060018152602001603160f81b81525062000089620000836200022a60201b60201c565b6200022e565b620000968260016200027e565b61012052620000a78160026200027e565b61014052815160208084019190912060e052815190820120610100524660a0526200013560e05161010051604080517f8b73c3c69bb8fe3d512ecc4cf759cc79239f7b179b0ffacaa9a75d522b39400f60208201529081019290925260608201524660808201523060a082015260009060c00160405160208183030381529060405280519060200120905090565b60805250503060c0526001600160a01b0383163b6200019b5760405162461bcd60e51b815260206004820152601c60248201527f496e76616c6964204e465420636f6e747261637420616464726573730000000060448201526064015b60405180910390fd5b60008211620001ed5760405162461bcd60e51b815260206004820152601a60248201527f496e76616c6964206d6178204e4654207065722077616c6c6574000000000000604482015260640162000192565b600380546001600160a01b039485166001600160a01b0319918216179091556006929092556000600555600480549190931691161790556200053e565b3390565b600080546001600160a01b038381166001600160a01b0319831681178455604051919092169283917f8be0079c531659141344cd1fd0a4f28419497f9722a3daafe3b4186f6b6457e09190a35050565b60006020835110156200029e576200029683620002b7565b9050620002b1565b81620002ab8482620003fd565b5060ff90505b92915050565b600080829050601f81511115620002e5578260405163305a27a960e01b8152600401620001929190620004c9565b8051620002f28262000519565b179392505050565b80516001600160a01b03811681146200031257600080fd5b919050565b6000806000606084860312156200032d57600080fd5b6200033884620002fa565b9250602084015191506200034f60408501620002fa565b90509250925092565b634e487b7160e01b600052604160045260246000fd5b600181811c908216806200038357607f821691505b602082108103620003a457634e487b7160e01b600052602260045260246000fd5b50919050565b601f821115620003f857600081815260208120601f850160051c81016020861015620003d35750805b601f850160051c820191505b81811015620003f457828155600101620003df565b5050505b505050565b81516001600160401b0381111562000419576200041962000358565b62000431816200042a84546200036e565b84620003aa565b602080601f831160018114620004695760008415620004505750858301515b600019600386901b1c1916600185901b178555620003f4565b600085815260208120601f198616915b828110156200049a5788860151825594840194600190910190840162000479565b5085821015620004b95787850151600019600388901b60f8161c191681555b5050505050600190811b01905550565b600060208083528351808285015260005b81811015620004f857858101830151858201604001528201620004da565b506000604082860101526040601f19601f8301168501019250505092915050565b80516020808301519190811015620003a45760001960209190910360031b1b16919050565b60805160a05160c05160e05161010051610120516101405161205062000599600039600061101d01526000610ff201526000611809015260006117e10152600061173c015260006117660152600061179001526120506000f3fe608060405234801561001057600080fd5b506004361061018e5760003560e01c80639cbe5efd116100de578063c7c5a8c011610097578063e43252d711610071578063e43252d7146104f5578063e6b6a7c814610508578063f2fde38b1461051b578063fc6f94681461052e57600080fd5b8063c7c5a8c0146104b6578063d56d229d146104bf578063d936547e146104d257600080fd5b80639cbe5efd146104555780639e115f751461046c578063a2309ff81461047f578063a365f2a514610488578063a617713914610490578063b5a37260146104a357600080fd5b806368742da61161014b57806388c3ffb01161012557806388c3ffb01461033c5780638ab1d681146103ea5780638da5cb5b146103fd5780639ca423b31461042257600080fd5b806368742da614610306578063715018a61461031957806384b0196e1461032157600080fd5b806312f810381461019357806321874ae2146101d65780633e4111fb14610229578063430884cf1461023e57806345199ce114610251578063484bb244146102e3575b600080fd5b6101c16101a1366004611b7d565b8051602081830181018051600c8252928201919093012091525460ff1681565b60405190151581526020015b60405180910390f35b61020a6101e4366004611bce565b6001600160a01b039081166000908152600b602052604090208054600190910154911691565b604080516001600160a01b0390931683526020830191909152016101cd565b61023c610237366004611be9565b610541565b005b61023c61024c366004611c67565b610d1c565b6102a661025f366004611c9e565b600a60205260009081526040902080546001820154600283015460038401546004850154600586015460068701546007909701549596949593949293919260ff9091169188565b6040805198895260208901979097529587019490945260608601929092526080850152151560a084015260c083015260e0820152610100016101cd565b6101c16102f1366004611bce565b60086020526000908152604090205460ff1681565b61023c610314366004611bce565b610dd2565b61023c610fd0565b610329610fe4565b6040516101cd9796959493929190611d07565b6103a461034a366004611c9e565b6000908152600a6020908152604080832080546001820154600283015460038401546004850154600586015460068701546007880154338c52600890980190995296909820549398929791969095919460ff909216939092565b60408051998a5260208a01989098529688019590955260608701939093526080860191909152151560a085015260c084015260e0830152610100820152610120016101cd565b61023c6103f8366004611bce565b61106d565b6000546001600160a01b03165b6040516001600160a01b0390911681526020016101cd565b61020a610430366004611bce565b600b60205260009081526040902080546001909101546001600160a01b039091169082565b61045e60055481565b6040519081526020016101cd565b61045e61047a366004611d9d565b6110be565b61045e60075481565b61045e600581565b61023c61049e366004611e16565b61111d565b61023c6104b1366004611c9e565b6111f8565b61045e60065481565b60035461040a906001600160a01b031681565b6101c16104e0366004611bce565b60096020526000908152604090205460ff1681565b61023c610503366004611bce565b611255565b61023c610516366004611e8b565b6112a9565b61023c610529366004611bce565b611479565b60045461040a906001600160a01b031681565b6003546001600160a01b03166105955760405162461bcd60e51b81526020600482015260146024820152731391950818dbdb9d1c9858dd081b9bdd081cd95d60621b60448201526064015b60405180910390fd5b6001600160a01b038416600090815260086020526040902054849060ff166105ff5760405162461bcd60e51b815260206004820152601a60248201527f5061796d656e7420746f6b656e206e6f74206163636570746564000000000000604482015260640161058c565b83600c816040516106109190611ee0565b9081526040519081900360200190205460ff16156106705760405162461bcd60e51b815260206004820181905260248201527f4f6e6c79207369676e617475726520686173206e6f74206265656e2075736564604482015260640161058c565b604080518082019091526001600160a01b038516815260208101849052600061069982886114f2565b90506001600c886040516106ad9190611ee0565b908152604051908190036020019020805491151560ff199092169190911790556004546001600160a01b038281169116146107225760405162461bcd60e51b8152602060048201526015602482015274496e76616c696420696e707574206164647265737360581b604482015260640161058c565b336001600160a01b038716036107725760405162461bcd60e51b815260206004820152601560248201527421b0b73737ba103932b332b9103cb7bab939b2b63360591b604482015260640161058c565b6001600160a01b0386166107c85760405162461bcd60e51b815260206004820152601860248201527f496e76616c696420726566657272657220616464726573730000000000000000604482015260640161058c565b6000898152600a6020526040902080546108145760405162461bcd60e51b815260206004820152600d60248201526c125b9d985b1a59081c9bdd5b99609a1b604482015260640161058c565b806001015442101561085c5760405162461bcd60e51b8152602060048201526011602482015270149bdd5b99081b9bdd081cdd185c9d1959607a1b604482015260640161058c565b806002015442111561089e5760405162461bcd60e51b815260206004820152600b60248201526a149bdd5b9908195b99195960aa1b604482015260640161058c565b80600301548160060154106108f55760405162461bcd60e51b815260206004820152601860248201527f526f756e64206d617820737570706c7920726561636865640000000000000000604482015260640161058c565b600581015460ff1615610953573360009081526009602052604090205460ff166109535760405162461bcd60e51b815260206004820152600f60248201526e139bdd081dda1a5d195b1a5cdd1959608a1b604482015260640161058c565b6006546003546040516370a0823160e01b81523360048201526001600160a01b03909116906370a0823190602401602060405180830381865afa15801561099e573d6000803e3d6000fd5b505050506040513d601f19601f820116820180604052508101906109c29190611efc565b10610a0f5760405162461bcd60e51b815260206004820152601a60248201527f4d6178204e4654207065722077616c6c65742072656163686564000000000000604482015260640161058c565b60008990506000606460058460040154610a299190611f2b565b610a339190611f42565b6004848101546040516323b872dd60e01b81523392810192909252306024830152604482018190529192506001600160a01b038416906323b872dd906064016020604051808303816000875af1158015610a91573d6000803e3d6000fd5b505050506040513d601f19601f82011682018060405250810190610ab59190611f64565b610af25760405162461bcd60e51b815260206004820152600e60248201526d14185e5b595b9d0819985a5b195960921b604482015260640161058c565b60405163a9059cbb60e01b81526001600160a01b038b811660048301526024820184905284169063a9059cbb906044016020604051808303816000875af1158015610b41573d6000803e3d6000fd5b505050506040513d601f19601f82011682018060405250810190610b659190611f64565b610bb15760405162461bcd60e51b815260206004820152601a60248201527f436f6d6d697373696f6e207472616e73666572206661696c6564000000000000604482015260640161058c565b6001600160a01b038a166000818152600b6020526040812080546001600160a01b031916909217825560019091018054849290610bef908490611f88565b9091555050600754600090610c05906001611f88565b600780549192506000610c1783611f9b565b9091555050600685018054906000610c2e83611f9b565b90915550506003546040516340c10f1960e01b8152336004820152602481018390526001600160a01b03909116906340c10f1990604401600060405180830381600087803b158015610c7f57600080fd5b505af1158015610c93573d6000803e3d6000fd5b50506040518381523392507f7f8aed29394d49180b299699236f142fbd3a78f6d1464929dd17e87b73ebc8d2915060200160405180910390a260405183815233906001600160a01b038d16907f86ddab457291316e0f5496737e5ca67c4037234c32c3be04c48ae96186893a7b9060200160405180910390a35050505050505050505050505050565b610d2461154a565b6001600160a01b0382163b610d735760405162461bcd60e51b8152602060048201526015602482015274496e76616c696420746f6b656e206164647265737360581b604482015260640161058c565b6001600160a01b038216600081815260086020908152604091829020805460ff191685151590811790915591519182527f19c6e2fbd27c3204efb106f0081d2d7ffaf44da224ca04fbc0d8a262ba40f555910160405180910390a25050565b610dda61154a565b6001600160a01b038116600090815260086020526040902054819060ff16610e445760405162461bcd60e51b815260206004820152601a60248201527f5061796d656e7420746f6b656e206e6f74206163636570746564000000000000604482015260640161058c565b6040516370a0823160e01b815230600482015282906000906001600160a01b038316906370a0823190602401602060405180830381865afa158015610e8d573d6000803e3d6000fd5b505050506040513d601f19601f82011682018060405250810190610eb19190611efc565b905060008111610efa5760405162461bcd60e51b81526020600482015260146024820152734e6f2066756e647320746f20776974686472617760601b604482015260640161058c565b816001600160a01b031663a9059cbb610f1b6000546001600160a01b031690565b6040516001600160e01b031960e084901b1681526001600160a01b039091166004820152602481018490526044016020604051808303816000875af1158015610f68573d6000803e3d6000fd5b505050506040513d601f19601f82011682018060405250810190610f8c9190611f64565b610fca5760405162461bcd60e51b815260206004820152600f60248201526e151c985b9cd9995c8819985a5b1959608a1b604482015260640161058c565b50505050565b610fd861154a565b610fe260006115a4565b565b6000606080828080836110187f000000000000000000000000000000000000000000000000000000000000000060016115f4565b6110437f000000000000000000000000000000000000000000000000000000000000000060026115f4565b60408051600080825260208201909252600f60f81b9b939a50919850469750309650945092509050565b61107561154a565b6001600160a01b038116600081815260096020526040808220805460ff19169055517fcdd2e9b91a56913d370075169cefa1602ba36be5301664f752192bb1709df7579190a250565b604080516001600160a01b03808516602080840191909152309383019390935283511660608201529082015160808201526000906111149060a0016040516020818303038152906040528051906020012061169f565b90505b92915050565b61112561154a565b60005b818110156111f35760016009600085858581811061114857611148611fb4565b905060200201602081019061115d9190611bce565b6001600160a01b031681526020810191909152604001600020805460ff191691151591909117905582828281811061119757611197611fb4565b90506020020160208101906111ac9190611bce565b6001600160a01b03167faab7954e9d246b167ef88aeddad35209ca2489d95a8aeb59e288d9b19fae5a5460405160405180910390a2806111eb81611f9b565b915050611128565b505050565b61120061154a565b600081116112505760405162461bcd60e51b815260206004820152601a60248201527f496e76616c6964206d6178204e4654207065722077616c6c6574000000000000604482015260640161058c565b600655565b61125d61154a565b6001600160a01b038116600081815260096020526040808220805460ff19166001179055517faab7954e9d246b167ef88aeddad35209ca2489d95a8aeb59e288d9b19fae5a549190a250565b6112b161154a565b8486106113005760405162461bcd60e51b815260206004820152601860248201527f5374617274206d757374206265206265666f726520656e640000000000000000604482015260640161058c565b600084116113455760405162461bcd60e51b8152602060048201526012602482015271496e76616c6964206d617820737570706c7960701b604482015260640161058c565b600083116113855760405162461bcd60e51b815260206004820152600d60248201526c496e76616c696420707269636560981b604482015260640161058c565b600081116113e15760405162461bcd60e51b815260206004820152602360248201527f496e76616c6964206d6178204e4654207065722077616c6c657420696e20726f6044820152621d5b9960ea1b606482015260840161058c565b600580549060006113f183611f9b565b9091555050600580546000818152600a6020526040808220928355600183018a9055600283018990556003830188905560048301879055828401805460ff19168715151790556006830182905560078301859055925492519192917fa678db96b3cef44cebd44ad25b4a0518d5fe891d2b92341f31adc288b84a91379190a250505050505050565b61148161154a565b6001600160a01b0381166114e65760405162461bcd60e51b815260206004820152602660248201527f4f776e61626c653a206e6577206f776e657220697320746865207a65726f206160448201526564647265737360d01b606482015260840161058c565b6114ef816115a4565b50565b6000806114ff33856110be565b90506115428361153c837f19457468657265756d205369676e6564204d6573736167653a0a3332000000006000908152601c91909152603c902090565b906116cc565b949350505050565b6000546001600160a01b03163314610fe25760405162461bcd60e51b815260206004820181905260248201527f4f776e61626c653a2063616c6c6572206973206e6f7420746865206f776e6572604482015260640161058c565b600080546001600160a01b038381166001600160a01b0319831681178455604051919092169283917f8be0079c531659141344cd1fd0a4f28419497f9722a3daafe3b4186f6b6457e09190a35050565b606060ff831461160e57611607836116f0565b9050611117565b81805461161a90611fca565b80601f016020809104026020016040519081016040528092919081815260200182805461164690611fca565b80156116935780601f1061166857610100808354040283529160200191611693565b820191906000526020600020905b81548152906001019060200180831161167657829003601f168201915b50505050509050611117565b60006111176116ac61172f565b8360405161190160f01b8152600281019290925260228201526042902090565b60008060006116db858561185f565b915091506116e8816118a4565b509392505050565b606060006116fd836119ee565b604080516020808252818301909252919250600091906020820181803683375050509182525060208101929092525090565b6000306001600160a01b037f00000000000000000000000000000000000000000000000000000000000000001614801561178857507f000000000000000000000000000000000000000000000000000000000000000046145b156117b257507f000000000000000000000000000000000000000000000000000000000000000090565b61185a604080517f8b73c3c69bb8fe3d512ecc4cf759cc79239f7b179b0ffacaa9a75d522b39400f60208201527f0000000000000000000000000000000000000000000000000000000000000000918101919091527f000000000000000000000000000000000000000000000000000000000000000060608201524660808201523060a082015260009060c00160405160208183030381529060405280519060200120905090565b905090565b60008082516041036118955760208301516040840151606085015160001a61188987828585611a16565b9450945050505061189d565b506000905060025b9250929050565b60008160048111156118b8576118b8612004565b036118c05750565b60018160048111156118d4576118d4612004565b036119215760405162461bcd60e51b815260206004820152601860248201527f45434453413a20696e76616c6964207369676e61747572650000000000000000604482015260640161058c565b600281600481111561193557611935612004565b036119825760405162461bcd60e51b815260206004820152601f60248201527f45434453413a20696e76616c6964207369676e6174757265206c656e67746800604482015260640161058c565b600381600481111561199657611996612004565b036114ef5760405162461bcd60e51b815260206004820152602260248201527f45434453413a20696e76616c6964207369676e6174757265202773272076616c604482015261756560f01b606482015260840161058c565b600060ff8216601f81111561111757604051632cd44ac360e21b815260040160405180910390fd5b6000807f7fffffffffffffffffffffffffffffff5d576e7357a4501ddfe92f46681b20a0831115611a4d5750600090506003611ad1565b6040805160008082526020820180845289905260ff881692820192909252606081018690526080810185905260019060a0016020604051602081039080840390855afa158015611aa1573d6000803e3d6000fd5b5050604051601f1901519150506001600160a01b038116611aca57600060019250925050611ad1565b9150600090505b94509492505050565b634e487b7160e01b600052604160045260246000fd5b600082601f830112611b0157600080fd5b813567ffffffffffffffff80821115611b1c57611b1c611ada565b604051601f8301601f19908116603f01168101908282118183101715611b4457611b44611ada565b81604052838152866020858801011115611b5d57600080fd5b836020870160208301376000602085830101528094505050505092915050565b600060208284031215611b8f57600080fd5b813567ffffffffffffffff811115611ba657600080fd5b61154284828501611af0565b80356001600160a01b0381168114611bc957600080fd5b919050565b600060208284031215611be057600080fd5b61111482611bb2565b600080600080600060a08688031215611c0157600080fd5b85359450611c1160208701611bb2565b9350604086013567ffffffffffffffff811115611c2d57600080fd5b611c3988828901611af0565b935050611c4860608701611bb2565b949793965091946080013592915050565b80151581146114ef57600080fd5b60008060408385031215611c7a57600080fd5b611c8383611bb2565b91506020830135611c9381611c59565b809150509250929050565b600060208284031215611cb057600080fd5b5035919050565b60005b83811015611cd2578181015183820152602001611cba565b50506000910152565b60008151808452611cf3816020860160208601611cb7565b601f01601f19169290920160200192915050565b60ff60f81b881681526000602060e081840152611d2760e084018a611cdb565b8381036040850152611d39818a611cdb565b606085018990526001600160a01b038816608086015260a0850187905284810360c0860152855180825283870192509083019060005b81811015611d8b57835183529284019291840191600101611d6f565b50909c9b505050505050505050505050565b6000808284036060811215611db157600080fd5b611dba84611bb2565b92506040601f1982011215611dce57600080fd5b506040516040810181811067ffffffffffffffff82111715611df257611df2611ada565b604052611e0160208501611bb2565b81526040939093013560208401525092909150565b60008060208385031215611e2957600080fd5b823567ffffffffffffffff80821115611e4157600080fd5b818501915085601f830112611e5557600080fd5b813581811115611e6457600080fd5b8660208260051b8501011115611e7957600080fd5b60209290920196919550909350505050565b60008060008060008060c08789031215611ea457600080fd5b863595506020870135945060408701359350606087013592506080870135611ecb81611c59565b8092505060a087013590509295509295509295565b60008251611ef2818460208701611cb7565b9190910192915050565b600060208284031215611f0e57600080fd5b5051919050565b634e487b7160e01b600052601160045260246000fd5b808202811582820484141761111757611117611f15565b600082611f5f57634e487b7160e01b600052601260045260246000fd5b500490565b600060208284031215611f7657600080fd5b8151611f8181611c59565b9392505050565b8082018082111561111757611117611f15565b600060018201611fad57611fad611f15565b5060010190565b634e487b7160e01b600052603260045260246000fd5b600181811c90821680611fde57607f821691505b602082108103611ffe57634e487b7160e01b600052602260045260246000fd5b50919050565b634e487b7160e01b600052602160045260246000fdfea2646970667358221220aa643963e63c9cad69abc0d12fd2255392c664575e36a06a068ce3cb1e6c32e164736f6c63430008130033",
  "linkReferences": {},
  "deployedLinkReferences": {}
}