{
  "_format": "hh-sol-artifact-1",
  "contractName": "NFTPresaleManager",
  "sourceName": "contracts/NFTPresaleManager.sol",
  "abi": [
    {
      "inputs": [
        {
          "internalType": "address",
          "name": "_nftContract",
          "type": "address"
        },
        {
          "internalType": "uint256",
          "name": "_maxSupply",
          "type": "uint256"
        },
        {
          "internalType": "uint256",
          "name": "_price",
          "type": "uint256"
        },
        {
          "internalType": "uint256",
          "name": "_presaleStart",
          "type": "uint256"
        },
        {
          "internalType": "uint256",
          "name": "_presaleEnd",
          "type": "uint256"
        }
      ],
      "stateMutability": "nonpayable",
      "type": "constructor"
    },
    {
      "anonymous": false,
      "inputs": [
        {
          "indexed": true,
          "internalType": "address",
          "name": "buyer",
          "type": "address"
        },
        {
          "indexed": false,
          "internalType": "uint256",
          "name": "tokenId",
          "type": "uint256"
        }
      ],
      "name": "NFTPurchased",
      "type": "event"
    },
    {
      "anonymous": false,
      "inputs": [
        {
          "indexed": true,
          "internalType": "address",
          "name": "previousOwner",
          "type": "address"
        },
        {
          "indexed": true,
          "internalType": "address",
          "name": "newOwner",
          "type": "address"
        }
      ],
      "name": "OwnershipTransferred",
      "type": "event"
    },
    {
      "anonymous": false,
      "inputs": [
        {
          "indexed": false,
          "internalType": "uint256",
          "name": "start",
          "type": "uint256"
        },
        {
          "indexed": false,
          "internalType": "uint256",
          "name": "end",
          "type": "uint256"
        }
      ],
      "name": "PresalePeriodUpdated",
      "type": "event"
    },
    {
      "anonymous": false,
      "inputs": [
        {
          "indexed": true,
          "internalType": "address",
          "name": "account",
          "type": "address"
        }
      ],
      "name": "RemovedFromWhitelist",
      "type": "event"
    },
    {
      "anonymous": false,
      "inputs": [
        {
          "indexed": true,
          "internalType": "address",
          "name": "account",
          "type": "address"
        }
      ],
      "name": "Whitelisted",
      "type": "event"
    },
    {
      "inputs": [
        {
          "internalType": "address",
          "name": "account",
          "type": "address"
        }
      ],
      "name": "addToWhitelist",
      "outputs": [],
      "stateMutability": "nonpayable",
      "type": "function"
    },
    {
      "inputs": [
        {
          "internalType": "address[]",
          "name": "accounts",
          "type": "address[]"
        }
      ],
      "name": "addToWhitelistBatch",
      "outputs": [],
      "stateMutability": "nonpayable",
      "type": "function"
    },
    {
      "inputs": [],
      "name": "buyNFT",
      "outputs": [],
      "stateMutability": "payable",
      "type": "function"
    },
    {
      "inputs": [],
      "name": "maxSupply",
      "outputs": [
        {
          "internalType": "uint256",
          "name": "",
          "type": "uint256"
        }
      ],
      "stateMutability": "view",
      "type": "function"
    },
    {
      "inputs": [],
      "name": "nftContract",
      "outputs": [
        {
          "internalType": "contract IERC721Mintable",
          "name": "",
          "type": "address"
        }
      ],
      "stateMutability": "view",
      "type": "function"
    },
    {
      "inputs": [],
      "name": "owner",
      "outputs": [
        {
          "internalType": "address",
          "name": "",
          "type": "address"
        }
      ],
      "stateMutability": "view",
      "type": "function"
    },
    {
      "inputs": [],
      "name": "presaleEnd",
      "outputs": [
        {
          "internalType": "uint256",
          "name": "",
          "type": "uint256"
        }
      ],
      "stateMutability": "view",
      "type": "function"
    },
    {
      "inputs": [],
      "name": "presaleStart",
      "outputs": [
        {
          "internalType": "uint256",
          "name": "",
          "type": "uint256"
        }
      ],
      "stateMutability": "view",
      "type": "function"
    },
    {
      "inputs": [],
      "name": "price",
      "outputs": [
        {
          "internalType": "uint256",
          "name": "",
          "type": "uint256"
        }
      ],
      "stateMutability": "view",
      "type": "function"
    },
    {
      "inputs": [
        {
          "internalType": "address",
          "name": "account",
          "type": "address"
        }
      ],
      "name": "removeFromWhitelist",
      "outputs": [],
      "stateMutability": "nonpayable",
      "type": "function"
    },
    {
      "inputs": [],
      "name": "renounceOwnership",
      "outputs": [],
      "stateMutability": "nonpayable",
      "type": "function"
    },
    {
      "inputs": [],
      "name": "totalMinted",
      "outputs": [
        {
          "internalType": "uint256",
          "name": "",
          "type": "uint256"
        }
      ],
      "stateMutability": "view",
      "type": "function"
    },
    {
      "inputs": [
        {
          "internalType": "address",
          "name": "newOwner",
          "type": "address"
        }
      ],
      "name": "transferOwnership",
      "outputs": [],
      "stateMutability": "nonpayable",
      "type": "function"
    },
    {
      "inputs": [
        {
          "internalType": "uint256",
          "name": "_start",
          "type": "uint256"
        },
        {
          "internalType": "uint256",
          "name": "_end",
          "type": "uint256"
        }
      ],
      "name": "updatePresalePeriod",
      "outputs": [],
      "stateMutability": "nonpayable",
      "type": "function"
    },
    {
      "inputs": [
        {
          "internalType": "address",
          "name": "",
          "type": "address"
        }
      ],
      "name": "whitelisted",
      "outputs": [
        {
          "internalType": "bool",
          "name": "",
          "type": "bool"
        }
      ],
      "stateMutability": "view",
      "type": "function"
    },
    {
      "inputs": [],
      "name": "withdrawFunds",
      "outputs": [],
      "stateMutability": "nonpayable",
      "type": "function"
    }
  ],
  "bytecode": "0x608060405234801561001057600080fd5b50604051610df1380380610df1833981810160405260a081101561003357600080fd5b50805160208201516040830151606084015160809094015192939192909190600061005c61019c565b600080546001600160a01b0319166001600160a01b0383169081178255604051929350917f8be0079c531659141344cd1fd0a4f28419497f9722a3daafe3b4186f6b6457e0908290a3508082106100fa576040805162461bcd60e51b815260206004820152601860248201527f5374617274206d757374206265206265666f726520656e640000000000000000604482015290519081900360640190fd5b610116856001600160a01b03166101a060201b610bb61760201c565b610167576040805162461bcd60e51b815260206004820152601c60248201527f496e76616c6964204e465420636f6e7472616374206164647265737300000000604482015290519081900360640190fd5b600180546001600160a01b0319166001600160a01b0396909616959095179094556002929092556003556005556006556101a6565b3390565b3b151590565b610c3c806101b56000396000f3fe6080604052600436106100f35760003560e01c8063a61771391161008a578063d936547e11610059578063d936547e146102b8578063de8801e5146102ff578063e43252d714610314578063f2fde38b14610347576100f3565b8063a617713914610209578063bff29cee14610286578063d56d229d1461028e578063d5abeb01146102a3576100f3565b80638ab1d681116100c65780638ab1d6811461017b5780638da5cb5b146101ae578063a035b1fe146101df578063a2309ff8146101f4576100f3565b8063229f3e29146100f857806324600fc31461011f5780632485b0f014610136578063715018a614610166575b600080fd5b34801561010457600080fd5b5061010d61037a565b60408051918252519081900360200190f35b34801561012b57600080fd5b50610134610380565b005b34801561014257600080fd5b506101346004803603604081101561015957600080fd5b5080359060200135610425565b34801561017257600080fd5b50610134610524565b34801561018757600080fd5b506101346004803603602081101561019e57600080fd5b50356001600160a01b03166105d0565b3480156101ba57600080fd5b506101c361067b565b604080516001600160a01b039092168252519081900360200190f35b3480156101eb57600080fd5b5061010d61068a565b34801561020057600080fd5b5061010d610690565b34801561021557600080fd5b506101346004803603602081101561022c57600080fd5b81019060208101813564010000000081111561024757600080fd5b82018360208201111561025957600080fd5b8035906020019184602083028401116401000000008311171561027b57600080fd5b509092509050610696565b6101346107ba565b34801561029a57600080fd5b506101c36109d6565b3480156102af57600080fd5b5061010d6109e5565b3480156102c457600080fd5b506102eb600480360360208110156102db57600080fd5b50356001600160a01b03166109eb565b604080519115158252519081900360200190f35b34801561030b57600080fd5b5061010d610a00565b34801561032057600080fd5b506101346004803603602081101561033757600080fd5b50356001600160a01b0316610a06565b34801561035357600080fd5b506101346004803603602081101561036a57600080fd5b50356001600160a01b0316610ab4565b60065481565b610388610bbc565b6001600160a01b031661039961067b565b6001600160a01b0316146103e2576040805162461bcd60e51b81526020600482018190526024820152600080516020610be7833981519152604482015290519081900360640190fd5b6103ea61067b565b6001600160a01b03166108fc479081150290604051600060405180830381858888f19350505050158015610422573d6000803e3d6000fd5b50565b61042d610bbc565b6001600160a01b031661043e61067b565b6001600160a01b031614610487576040805162461bcd60e51b81526020600482018190526024820152600080516020610be7833981519152604482015290519081900360640190fd5b8082106104db576040805162461bcd60e51b815260206004820152601860248201527f5374617274206d757374206265206265666f726520656e640000000000000000604482015290519081900360640190fd5b60058290556006819055604080518381526020810183905281517fddc98382f0b83f68c37c3dd3fdc739da3e76e497e2306c9b57daa04ec8d2a4a3929181900390910190a15050565b61052c610bbc565b6001600160a01b031661053d61067b565b6001600160a01b031614610586576040805162461bcd60e51b81526020600482018190526024820152600080516020610be7833981519152604482015290519081900360640190fd5b600080546040516001600160a01b03909116907f8be0079c531659141344cd1fd0a4f28419497f9722a3daafe3b4186f6b6457e0908390a3600080546001600160a01b0319169055565b6105d8610bbc565b6001600160a01b03166105e961067b565b6001600160a01b031614610632576040805162461bcd60e51b81526020600482018190526024820152600080516020610be7833981519152604482015290519081900360640190fd5b6001600160a01b038116600081815260076020526040808220805460ff19169055517fcdd2e9b91a56913d370075169cefa1602ba36be5301664f752192bb1709df7579190a250565b6000546001600160a01b031690565b60035481565b60045481565b61069e610bbc565b6001600160a01b03166106af61067b565b6001600160a01b0316146106f8576040805162461bcd60e51b81526020600482018190526024820152600080516020610be7833981519152604482015290519081900360640190fd5b60005b818110156107b55760016007600085858581811061071557fe5b905060200201356001600160a01b03166001600160a01b03166001600160a01b0316815260200190815260200160002060006101000a81548160ff02191690831515021790555082828281811061076857fe5b905060200201356001600160a01b03166001600160a01b03167faab7954e9d246b167ef88aeddad35209ca2489d95a8aeb59e288d9b19fae5a5460405160405180910390a26001016106fb565b505050565b6001546001600160a01b031661080e576040805162461bcd60e51b81526020600482015260146024820152731391950818dbdb9d1c9858dd081b9bdd081cd95d60621b604482015290519081900360640190fd5b6002546004541061085b576040805162461bcd60e51b815260206004820152601260248201527113585e081cdd5c1c1b1e481c995858da195960721b604482015290519081900360640190fd5b6003543410156108a7576040805162461bcd60e51b8152602060048201526012602482015271496e73756666696369656e742066756e647360701b604482015290519081900360640190fd5b60055442101580156108bb57506006544211155b15610924573360009081526007602052604090205460ff16610924576040805162461bcd60e51b815260206004820152601e60248201527f4e6f742077686974656c697374656420647572696e672070726573616c650000604482015290519081900360640190fd5b6004805460019081018083559054604080516340c10f1960e01b81523394810194909452602484018390525191926001600160a01b03909116916340c10f199160448082019260009290919082900301818387803b15801561098557600080fd5b505af1158015610999573d6000803e3d6000fd5b50506040805184815290513393507f7f8aed29394d49180b299699236f142fbd3a78f6d1464929dd17e87b73ebc8d292509081900360200190a250565b6001546001600160a01b031681565b60025481565b60076020526000908152604090205460ff1681565b60055481565b610a0e610bbc565b6001600160a01b0316610a1f61067b565b6001600160a01b031614610a68576040805162461bcd60e51b81526020600482018190526024820152600080516020610be7833981519152604482015290519081900360640190fd5b6001600160a01b038116600081815260076020526040808220805460ff19166001179055517faab7954e9d246b167ef88aeddad35209ca2489d95a8aeb59e288d9b19fae5a549190a250565b610abc610bbc565b6001600160a01b0316610acd61067b565b6001600160a01b031614610b16576040805162461bcd60e51b81526020600482018190526024820152600080516020610be7833981519152604482015290519081900360640190fd5b6001600160a01b038116610b5b5760405162461bcd60e51b8152600401808060200182810382526026815260200180610bc16026913960400191505060405180910390fd5b600080546040516001600160a01b03808516939216917f8be0079c531659141344cd1fd0a4f28419497f9722a3daafe3b4186f6b6457e091a3600080546001600160a01b0319166001600160a01b0392909216919091179055565b3b151590565b339056fe4f776e61626c653a206e6577206f776e657220697320746865207a65726f20616464726573734f776e61626c653a2063616c6c6572206973206e6f7420746865206f776e6572a26469706673582212202ca0a78801e01b493c4110d830476639c5c7e1942bf51c366dc8a274e304871664736f6c63430007060033",
  "linkReferences": {},
  "deployedLinkReferences": {}
}