{
  "_format": "hh-sol-artifact-1",
  "contractName": "NFTPresaleManager",
  "sourceName": "contracts/NFTPresaleManager.sol",
  "abi": [
    {
      "inputs": [
        {
          "internalType": "address",
          "name": "_nftContract",
          "type": "address"
        },
        {
          "internalType": "uint256",
          "name": "_maxNFTPerWallet",
          "type": "uint256"
        }
      ],
      "stateMutability": "nonpayable",
      "type": "constructor"
    },
    {
      "anonymous": false,
      "inputs": [
        {
          "indexed": true,
          "internalType": "address",
          "name": "buyer",
          "type": "address"
        },
        {
          "indexed": false,
          "internalType": "uint256",
          "name": "tokenId",
          "type": "uint256"
        }
      ],
      "name": "NFTPurchased",
      "type": "event"
    },
    {
      "anonymous": false,
      "inputs": [
        {
          "indexed": true,
          "internalType": "address",
          "name": "previousOwner",
          "type": "address"
        },
        {
          "indexed": true,
          "internalType": "address",
          "name": "newOwner",
          "type": "address"
        }
      ],
      "name": "OwnershipTransferred",
      "type": "event"
    },
    {
      "anonymous": false,
      "inputs": [
        {
          "indexed": true,
          "internalType": "address",
          "name": "token",
          "type": "address"
        },
        {
          "indexed": false,
          "internalType": "bool",
          "name": "accepted",
          "type": "bool"
        }
      ],
      "name": "PaymentTokenUpdated",
      "type": "event"
    },
    {
      "anonymous": false,
      "inputs": [
        {
          "indexed": true,
          "internalType": "address",
          "name": "account",
          "type": "address"
        }
      ],
      "name": "RemovedFromWhitelist",
      "type": "event"
    },
    {
      "anonymous": false,
      "inputs": [
        {
          "indexed": true,
          "internalType": "uint256",
          "name": "roundId",
          "type": "uint256"
        }
      ],
      "name": "SaleRoundCreated",
      "type": "event"
    },
    {
      "anonymous": false,
      "inputs": [
        {
          "indexed": true,
          "internalType": "address",
          "name": "account",
          "type": "address"
        }
      ],
      "name": "Whitelisted",
      "type": "event"
    },
    {
      "inputs": [
        {
          "internalType": "address",
          "name": "",
          "type": "address"
        }
      ],
      "name": "acceptedPaymentTokens",
      "outputs": [
        {
          "internalType": "bool",
          "name": "",
          "type": "bool"
        }
      ],
      "stateMutability": "view",
      "type": "function"
    },
    {
      "inputs": [
        {
          "internalType": "address",
          "name": "account",
          "type": "address"
        }
      ],
      "name": "addToWhitelist",
      "outputs": [],
      "stateMutability": "nonpayable",
      "type": "function"
    },
    {
      "inputs": [
        {
          "internalType": "address[]",
          "name": "accounts",
          "type": "address[]"
        }
      ],
      "name": "addToWhitelistBatch",
      "outputs": [],
      "stateMutability": "nonpayable",
      "type": "function"
    },
    {
      "inputs": [
        {
          "internalType": "uint256",
          "name": "_roundId",
          "type": "uint256"
        },
        {
          "internalType": "address",
          "name": "_paymentToken",
          "type": "address"
        }
      ],
      "name": "buyNFT",
      "outputs": [],
      "stateMutability": "nonpayable",
      "type": "function"
    },
    {
      "inputs": [
        {
          "internalType": "uint256",
          "name": "_startTime",
          "type": "uint256"
        },
        {
          "internalType": "uint256",
          "name": "_endTime",
          "type": "uint256"
        },
        {
          "internalType": "uint256",
          "name": "_maxSupply",
          "type": "uint256"
        },
        {
          "internalType": "uint256",
          "name": "_price",
          "type": "uint256"
        },
        {
          "internalType": "bool",
          "name": "_whitelistOnly",
          "type": "bool"
        }
      ],
      "name": "createSaleRound",
      "outputs": [],
      "stateMutability": "nonpayable",
      "type": "function"
    },
    {
      "inputs": [],
      "name": "currentRoundId",
      "outputs": [
        {
          "internalType": "uint256",
          "name": "",
          "type": "uint256"
        }
      ],
      "stateMutability": "view",
      "type": "function"
    },
    {
      "inputs": [
        {
          "internalType": "uint256",
          "name": "_roundId",
          "type": "uint256"
        }
      ],
      "name": "getRoundInfo",
      "outputs": [
        {
          "internalType": "uint256",
          "name": "id",
          "type": "uint256"
        },
        {
          "internalType": "uint256",
          "name": "startTime",
          "type": "uint256"
        },
        {
          "internalType": "uint256",
          "name": "endTime",
          "type": "uint256"
        },
        {
          "internalType": "uint256",
          "name": "maxSupply",
          "type": "uint256"
        },
        {
          "internalType": "uint256",
          "name": "price",
          "type": "uint256"
        },
        {
          "internalType": "bool",
          "name": "whitelistOnly",
          "type": "bool"
        },
        {
          "internalType": "uint256",
          "name": "totalMinted",
          "type": "uint256"
        }
      ],
      "stateMutability": "view",
      "type": "function"
    },
    {
      "inputs": [],
      "name": "maxNFTPerWallet",
      "outputs": [
        {
          "internalType": "uint256",
          "name": "",
          "type": "uint256"
        }
      ],
      "stateMutability": "view",
      "type": "function"
    },
    {
      "inputs": [],
      "name": "nftContract",
      "outputs": [
        {
          "internalType": "contract IERC721Mintable",
          "name": "",
          "type": "address"
        }
      ],
      "stateMutability": "view",
      "type": "function"
    },
    {
      "inputs": [],
      "name": "owner",
      "outputs": [
        {
          "internalType": "address",
          "name": "",
          "type": "address"
        }
      ],
      "stateMutability": "view",
      "type": "function"
    },
    {
      "inputs": [
        {
          "internalType": "address",
          "name": "account",
          "type": "address"
        }
      ],
      "name": "removeFromWhitelist",
      "outputs": [],
      "stateMutability": "nonpayable",
      "type": "function"
    },
    {
      "inputs": [],
      "name": "renounceOwnership",
      "outputs": [],
      "stateMutability": "nonpayable",
      "type": "function"
    },
    {
      "inputs": [
        {
          "internalType": "uint256",
          "name": "",
          "type": "uint256"
        }
      ],
      "name": "saleRounds",
      "outputs": [
        {
          "internalType": "uint256",
          "name": "id",
          "type": "uint256"
        },
        {
          "internalType": "uint256",
          "name": "startTime",
          "type": "uint256"
        },
        {
          "internalType": "uint256",
          "name": "endTime",
          "type": "uint256"
        },
        {
          "internalType": "uint256",
          "name": "maxSupply",
          "type": "uint256"
        },
        {
          "internalType": "uint256",
          "name": "price",
          "type": "uint256"
        },
        {
          "internalType": "bool",
          "name": "whitelistOnly",
          "type": "bool"
        },
        {
          "internalType": "uint256",
          "name": "totalMinted",
          "type": "uint256"
        }
      ],
      "stateMutability": "view",
      "type": "function"
    },
    {
      "inputs": [
        {
          "internalType": "uint256",
          "name": "_maxNFTPerWallet",
          "type": "uint256"
        }
      ],
      "name": "setMaxNFTPerWallet",
      "outputs": [],
      "stateMutability": "nonpayable",
      "type": "function"
    },
    {
      "inputs": [
        {
          "internalType": "address",
          "name": "_token",
          "type": "address"
        },
        {
          "internalType": "bool",
          "name": "_accepted",
          "type": "bool"
        }
      ],
      "name": "setPaymentToken",
      "outputs": [],
      "stateMutability": "nonpayable",
      "type": "function"
    },
    {
      "inputs": [],
      "name": "totalMinted",
      "outputs": [
        {
          "internalType": "uint256",
          "name": "",
          "type": "uint256"
        }
      ],
      "stateMutability": "view",
      "type": "function"
    },
    {
      "inputs": [
        {
          "internalType": "address",
          "name": "newOwner",
          "type": "address"
        }
      ],
      "name": "transferOwnership",
      "outputs": [],
      "stateMutability": "nonpayable",
      "type": "function"
    },
    {
      "inputs": [
        {
          "internalType": "address",
          "name": "",
          "type": "address"
        }
      ],
      "name": "whitelisted",
      "outputs": [
        {
          "internalType": "bool",
          "name": "",
          "type": "bool"
        }
      ],
      "stateMutability": "view",
      "type": "function"
    },
    {
      "inputs": [
        {
          "internalType": "address",
          "name": "_token",
          "type": "address"
        }
      ],
      "name": "withdrawFunds",
      "outputs": [],
      "stateMutability": "nonpayable",
      "type": "function"
    }
  ],
  "bytecode": "0x608060405234801561001057600080fd5b5060405161163c38038061163c8339818101604052604081101561003357600080fd5b5080516020909101516000610046610180565b600080546001600160a01b0319166001600160a01b0383169081178255604051929350917f8be0079c531659141344cd1fd0a4f28419497f9722a3daafe3b4186f6b6457e0908290a3506100ac826001600160a01b031661018460201b61141d1760201c565b6100fd576040805162461bcd60e51b815260206004820152601c60248201527f496e76616c6964204e465420636f6e7472616374206164647265737300000000604482015290519081900360640190fd5b60008111610152576040805162461bcd60e51b815260206004820152601a60248201527f496e76616c6964206d6178204e4654207065722077616c6c6574000000000000604482015290519081900360640190fd5b600180546001600160a01b0319166001600160a01b039390931692909217909155600355600060025561018a565b3390565b3b151590565b6114a3806101996000396000f3fe608060405234801561001057600080fd5b50600436106101215760003560e01c8063a2309ff8116100ad578063d8db47a711610071578063d8db47a71461033b578063d8f0de7814610367578063d936547e1461039e578063e43252d7146103c4578063f2fde38b146103ea57610121565b8063a2309ff814610296578063a61771391461029e578063b5a372601461030e578063c7c5a8c01461032b578063d56d229d1461033357610121565b8063715018a6116100f4578063715018a61461020d57806388c3ffb0146102155780638ab1d681146102325780638da5cb5b146102585780639cbe5efd1461027c57610121565b8063430884cf1461012657806345199ce114610156578063484bb244146101ad57806368742da6146101e7575b600080fd5b6101546004803603604081101561013c57600080fd5b506001600160a01b0381351690602001351515610410565b005b6101736004803603602081101561016c57600080fd5b503561052d565b6040805197885260208801969096528686019490945260608601929092526080850152151560a084015260c0830152519081900360e00190f35b6101d3600480360360208110156101c357600080fd5b50356001600160a01b031661056d565b604080519115158252519081900360200190f35b610154600480360360208110156101fd57600080fd5b50356001600160a01b0316610582565b6101546107e8565b6101736004803603602081101561022b57600080fd5b5035610894565b6101546004803603602081101561024857600080fd5b50356001600160a01b03166108d4565b61026061097f565b604080516001600160a01b039092168252519081900360200190f35b61028461098e565b60408051918252519081900360200190f35b610284610994565b610154600480360360208110156102b457600080fd5b8101906020810181356401000000008111156102cf57600080fd5b8201836020820111156102e157600080fd5b8035906020019184602083028401116401000000008311171561030357600080fd5b50909250905061099a565b6101546004803603602081101561032457600080fd5b5035610abe565b610284610b7a565b610260610b80565b6101546004803603604081101561035157600080fd5b50803590602001356001600160a01b0316610b8f565b610154600480360360a081101561037d57600080fd5b50803590602081013590604081013590606081013590608001351515611051565b6101d3600480360360208110156103b457600080fd5b50356001600160a01b0316611258565b610154600480360360208110156103da57600080fd5b50356001600160a01b031661126d565b6101546004803603602081101561040057600080fd5b50356001600160a01b031661131b565b610418611423565b6001600160a01b031661042961097f565b6001600160a01b031614610472576040805162461bcd60e51b8152602060048201819052602482015260008051602061144e833981519152604482015290519081900360640190fd5b610484826001600160a01b031661141d565b6104cd576040805162461bcd60e51b8152602060048201526015602482015274496e76616c696420746f6b656e206164647265737360581b604482015290519081900360640190fd5b6001600160a01b038216600081815260056020908152604091829020805460ff1916851515908117909155825190815291517f19c6e2fbd27c3204efb106f0081d2d7ffaf44da224ca04fbc0d8a262ba40f5559281900390910190a25050565b60076020526000908152604090208054600182015460028301546003840154600485015460058601546006909601549495939492939192909160ff169087565b60056020526000908152604090205460ff1681565b61058a611423565b6001600160a01b031661059b61097f565b6001600160a01b0316146105e4576040805162461bcd60e51b8152602060048201819052602482015260008051602061144e833981519152604482015290519081900360640190fd5b6001600160a01b038116600090815260056020526040902054819060ff16610653576040805162461bcd60e51b815260206004820152601a60248201527f5061796d656e7420746f6b656e206e6f74206163636570746564000000000000604482015290519081900360640190fd5b604080516370a0823160e01b8152306004820152905183916000916001600160a01b038416916370a08231916024808301926020929190829003018186803b15801561069e57600080fd5b505afa1580156106b2573d6000803e3d6000fd5b505050506040513d60208110156106c857600080fd5b5051905080610715576040805162461bcd60e51b81526020600482015260146024820152734e6f2066756e647320746f20776974686472617760601b604482015290519081900360640190fd5b816001600160a01b031663a9059cbb61072c61097f565b836040518363ffffffff1660e01b815260040180836001600160a01b0316815260200182815260200192505050602060405180830381600087803b15801561077357600080fd5b505af1158015610787573d6000803e3d6000fd5b505050506040513d602081101561079d57600080fd5b50516107e2576040805162461bcd60e51b815260206004820152600f60248201526e151c985b9cd9995c8819985a5b1959608a1b604482015290519081900360640190fd5b50505050565b6107f0611423565b6001600160a01b031661080161097f565b6001600160a01b03161461084a576040805162461bcd60e51b8152602060048201819052602482015260008051602061144e833981519152604482015290519081900360640190fd5b600080546040516001600160a01b03909116907f8be0079c531659141344cd1fd0a4f28419497f9722a3daafe3b4186f6b6457e0908390a3600080546001600160a01b0319169055565b60009081526007602052604090208054600182015460028301546003840154600485015460058601546006909601549496939592949193909260ff169190565b6108dc611423565b6001600160a01b03166108ed61097f565b6001600160a01b031614610936576040805162461bcd60e51b8152602060048201819052602482015260008051602061144e833981519152604482015290519081900360640190fd5b6001600160a01b038116600081815260066020526040808220805460ff19169055517fcdd2e9b91a56913d370075169cefa1602ba36be5301664f752192bb1709df7579190a250565b6000546001600160a01b031690565b60025481565b60045481565b6109a2611423565b6001600160a01b03166109b361097f565b6001600160a01b0316146109fc576040805162461bcd60e51b8152602060048201819052602482015260008051602061144e833981519152604482015290519081900360640190fd5b60005b81811015610ab957600160066000858585818110610a1957fe5b905060200201356001600160a01b03166001600160a01b03166001600160a01b0316815260200190815260200160002060006101000a81548160ff021916908315150217905550828282818110610a6c57fe5b905060200201356001600160a01b03166001600160a01b03167faab7954e9d246b167ef88aeddad35209ca2489d95a8aeb59e288d9b19fae5a5460405160405180910390a26001016109ff565b505050565b610ac6611423565b6001600160a01b0316610ad761097f565b6001600160a01b031614610b20576040805162461bcd60e51b8152602060048201819052602482015260008051602061144e833981519152604482015290519081900360640190fd5b60008111610b75576040805162461bcd60e51b815260206004820152601a60248201527f496e76616c6964206d6178204e4654207065722077616c6c6574000000000000604482015290519081900360640190fd5b600355565b60035481565b6001546001600160a01b031681565b6001546001600160a01b0316610be3576040805162461bcd60e51b81526020600482015260146024820152731391950818dbdb9d1c9858dd081b9bdd081cd95d60621b604482015290519081900360640190fd5b6001600160a01b038116600090815260056020526040902054819060ff16610c52576040805162461bcd60e51b815260206004820152601a60248201527f5061796d656e7420746f6b656e206e6f74206163636570746564000000000000604482015290519081900360640190fd5b60008381526007602052604090208054610ca3576040805162461bcd60e51b815260206004820152600d60248201526c125b9d985b1a59081c9bdd5b99609a1b604482015290519081900360640190fd5b8060010154421015610cf0576040805162461bcd60e51b8152602060048201526011602482015270149bdd5b99081b9bdd081cdd185c9d1959607a1b604482015290519081900360640190fd5b8060020154421115610d37576040805162461bcd60e51b815260206004820152600b60248201526a149bdd5b9908195b99195960aa1b604482015290519081900360640190fd5b8060030154816006015410610d93576040805162461bcd60e51b815260206004820152601860248201527f526f756e64206d617820737570706c7920726561636865640000000000000000604482015290519081900360640190fd5b600581015460ff1615610df6573360009081526006602052604090205460ff16610df6576040805162461bcd60e51b815260206004820152600f60248201526e139bdd081dda1a5d195b1a5cdd1959608a1b604482015290519081900360640190fd5b600354600154604080516370a0823160e01b815233600482015290516001600160a01b03909216916370a0823191602480820192602092909190829003018186803b158015610e4457600080fd5b505afa158015610e58573d6000803e3d6000fd5b505050506040513d6020811015610e6e57600080fd5b505110610ec2576040805162461bcd60e51b815260206004820152601a60248201527f4d6178204e4654207065722077616c6c65742072656163686564000000000000604482015290519081900360640190fd5b600480820154604080516323b872dd60e01b8152339381019390935230602484015260448301919091525184916001600160a01b038316916323b872dd916064808201926020929091908290030181600087803b158015610f2257600080fd5b505af1158015610f36573d6000803e3d6000fd5b505050506040513d6020811015610f4c57600080fd5b5051610f90576040805162461bcd60e51b815260206004820152600e60248201526d14185e5b595b9d0819985a5b195960921b604482015290519081900360640190fd5b600480546001908101808355600685018054830190559054604080516340c10f1960e01b81523394810194909452602484018390525191926001600160a01b03909116916340c10f199160448082019260009290919082900301818387803b158015610ffb57600080fd5b505af115801561100f573d6000803e3d6000fd5b50506040805184815290513393507f7f8aed29394d49180b299699236f142fbd3a78f6d1464929dd17e87b73ebc8d292509081900360200190a2505050505050565b611059611423565b6001600160a01b031661106a61097f565b6001600160a01b0316146110b3576040805162461bcd60e51b8152602060048201819052602482015260008051602061144e833981519152604482015290519081900360640190fd5b838510611107576040805162461bcd60e51b815260206004820152601860248201527f5374617274206d757374206265206265666f726520656e640000000000000000604482015290519081900360640190fd5b60008311611151576040805162461bcd60e51b8152602060048201526012602482015271496e76616c6964206d617820737570706c7960701b604482015290519081900360640190fd5b60008211611196576040805162461bcd60e51b815260206004820152600d60248201526c496e76616c696420707269636560981b604482015290519081900360640190fd5b6002805460019081018083556040805160e08101825282815260208082018b81528284018b8152606084018b8152608085018b81528a151560a08701908152600060c0880181815299815260079096528786209651875593519886019890985590518489015551600384015594516004830155935160058201805460ff19169115159190911790559151600690920191909155915491517fa678db96b3cef44cebd44ad25b4a0518d5fe891d2b92341f31adc288b84a91379190a25050505050565b60066020526000908152604090205460ff1681565b611275611423565b6001600160a01b031661128661097f565b6001600160a01b0316146112cf576040805162461bcd60e51b8152602060048201819052602482015260008051602061144e833981519152604482015290519081900360640190fd5b6001600160a01b038116600081815260066020526040808220805460ff19166001179055517faab7954e9d246b167ef88aeddad35209ca2489d95a8aeb59e288d9b19fae5a549190a250565b611323611423565b6001600160a01b031661133461097f565b6001600160a01b03161461137d576040805162461bcd60e51b8152602060048201819052602482015260008051602061144e833981519152604482015290519081900360640190fd5b6001600160a01b0381166113c25760405162461bcd60e51b81526004018080602001828103825260268152602001806114286026913960400191505060405180910390fd5b600080546040516001600160a01b03808516939216917f8be0079c531659141344cd1fd0a4f28419497f9722a3daafe3b4186f6b6457e091a3600080546001600160a01b0319166001600160a01b0392909216919091179055565b3b151590565b339056fe4f776e61626c653a206e6577206f776e657220697320746865207a65726f20616464726573734f776e61626c653a2063616c6c6572206973206e6f7420746865206f776e6572a26469706673582212202783540f3bbfd1f6154c0ce069829f4e1e63e08776b13974f9dd86aabef1a9ce64736f6c63430007060033",
  "linkReferences": {},
  "deployedLinkReferences": {}
}