{
  "_format": "hh-sol-artifact-1",
  "contractName": "NFTPresaleManager",
  "sourceName": "contracts/NFTPresaleManager.sol",
  "abi": [
    {
      "inputs": [
        {
          "internalType": "address",
          "name": "_nftContract",
          "type": "address"
        },
        {
          "internalType": "uint256",
          "name": "_maxNFTPerWallet",
          "type": "uint256"
        },
        {
          "internalType": "address",
          "name": "_adminAddress",
          "type": "address"
        }
      ],
      "stateMutability": "nonpayable",
      "type": "constructor"
    },
    {
      "inputs": [],
      "name": "InvalidShortString",
      "type": "error"
    },
    {
      "inputs": [
        {
          "internalType": "string",
          "name": "str",
          "type": "string"
        }
      ],
      "name": "StringTooLong",
      "type": "error"
    },
    {
      "anonymous": false,
      "inputs": [],
      "name": "EIP712DomainChanged",
      "type": "event"
    },
    {
      "anonymous": false,
      "inputs": [
        {
          "indexed": true,
          "internalType": "address",
          "name": "buyer",
          "type": "address"
        },
        {
          "indexed": false,
          "internalType": "uint256",
          "name": "tokenId",
          "type": "uint256"
        }
      ],
      "name": "NFTPurchased",
      "type": "event"
    },
    {
      "anonymous": false,
      "inputs": [
        {
          "indexed": true,
          "internalType": "address",
          "name": "previousOwner",
          "type": "address"
        },
        {
          "indexed": true,
          "internalType": "address",
          "name": "newOwner",
          "type": "address"
        }
      ],
      "name": "OwnershipTransferred",
      "type": "event"
    },
    {
      "anonymous": false,
      "inputs": [
        {
          "indexed": true,
          "internalType": "address",
          "name": "token",
          "type": "address"
        },
        {
          "indexed": false,
          "internalType": "bool",
          "name": "accepted",
          "type": "bool"
        }
      ],
      "name": "PaymentTokenUpdated",
      "type": "event"
    },
    {
      "anonymous": false,
      "inputs": [
        {
          "indexed": true,
          "internalType": "address",
          "name": "referrer",
          "type": "address"
        },
        {
          "indexed": true,
          "internalType": "address",
          "name": "buyer",
          "type": "address"
        },
        {
          "indexed": false,
          "internalType": "uint256",
          "name": "amount",
          "type": "uint256"
        }
      ],
      "name": "ReferralCommissionPaid",
      "type": "event"
    },
    {
      "anonymous": false,
      "inputs": [
        {
          "indexed": true,
          "internalType": "address",
          "name": "account",
          "type": "address"
        }
      ],
      "name": "RemovedFromWhitelist",
      "type": "event"
    },
    {
      "anonymous": false,
      "inputs": [
        {
          "indexed": true,
          "internalType": "uint256",
          "name": "roundId",
          "type": "uint256"
        }
      ],
      "name": "SaleRoundCreated",
      "type": "event"
    },
    {
      "anonymous": false,
      "inputs": [
        {
          "indexed": true,
          "internalType": "address",
          "name": "account",
          "type": "address"
        }
      ],
      "name": "Whitelisted",
      "type": "event"
    },
    {
      "inputs": [],
      "name": "REFERRAL_COMMISSION",
      "outputs": [
        {
          "internalType": "uint256",
          "name": "",
          "type": "uint256"
        }
      ],
      "stateMutability": "view",
      "type": "function"
    },
    {
      "inputs": [
        {
          "internalType": "address",
          "name": "",
          "type": "address"
        }
      ],
      "name": "acceptedPaymentTokens",
      "outputs": [
        {
          "internalType": "bool",
          "name": "",
          "type": "bool"
        }
      ],
      "stateMutability": "view",
      "type": "function"
    },
    {
      "inputs": [],
      "name": "adminAddress",
      "outputs": [
        {
          "internalType": "address",
          "name": "",
          "type": "address"
        }
      ],
      "stateMutability": "view",
      "type": "function"
    },
    {
      "inputs": [
        {
          "internalType": "bytes",
          "name": "",
          "type": "bytes"
        }
      ],
      "name": "blackListSignature",
      "outputs": [
        {
          "internalType": "bool",
          "name": "",
          "type": "bool"
        }
      ],
      "stateMutability": "view",
      "type": "function"
    },
    {
      "inputs": [
        {
          "internalType": "uint256",
          "name": "_roundId",
          "type": "uint256"
        },
        {
          "internalType": "address",
          "name": "_paymentToken",
          "type": "address"
        },
        {
          "internalType": "bytes",
          "name": "_signature",
          "type": "bytes"
        },
        {
          "internalType": "address",
          "name": "_referrer",
          "type": "address"
        },
        {
          "internalType": "uint256",
          "name": "createdAt",
          "type": "uint256"
        }
      ],
      "name": "buyNFTWithReferral",
      "outputs": [],
      "stateMutability": "nonpayable",
      "type": "function"
    },
    {
      "inputs": [],
      "name": "currentRoundId",
      "outputs": [
        {
          "internalType": "uint256",
          "name": "",
          "type": "uint256"
        }
      ],
      "stateMutability": "view",
      "type": "function"
    },
    {
      "inputs": [],
      "name": "eip712Domain",
      "outputs": [
        {
          "internalType": "bytes1",
          "name": "fields",
          "type": "bytes1"
        },
        {
          "internalType": "string",
          "name": "name",
          "type": "string"
        },
        {
          "internalType": "string",
          "name": "version",
          "type": "string"
        },
        {
          "internalType": "uint256",
          "name": "chainId",
          "type": "uint256"
        },
        {
          "internalType": "address",
          "name": "verifyingContract",
          "type": "address"
        },
        {
          "internalType": "bytes32",
          "name": "salt",
          "type": "bytes32"
        },
        {
          "internalType": "uint256[]",
          "name": "extensions",
          "type": "uint256[]"
        }
      ],
      "stateMutability": "view",
      "type": "function"
    },
    {
      "inputs": [
        {
          "internalType": "address",
          "name": "_referrer",
          "type": "address"
        }
      ],
      "name": "getReferralInfo",
      "outputs": [
        {
          "internalType": "address",
          "name": "referrer",
          "type": "address"
        },
        {
          "internalType": "uint256",
          "name": "totalCommission",
          "type": "uint256"
        }
      ],
      "stateMutability": "view",
      "type": "function"
    },
    {
      "inputs": [
        {
          "internalType": "address",
          "name": "_userAddr",
          "type": "address"
        },
        {
          "components": [
            {
              "internalType": "address",
              "name": "referrer",
              "type": "address"
            },
            {
              "internalType": "uint256",
              "name": "createdAt",
              "type": "uint256"
            }
          ],
          "internalType": "struct NFTPresaleManager.ReferrerSignatureHashInfo",
          "name": "data",
          "type": "tuple"
        }
      ],
      "name": "hashSignature",
      "outputs": [
        {
          "internalType": "bytes32",
          "name": "",
          "type": "bytes32"
        }
      ],
      "stateMutability": "view",
      "type": "function"
    },
    {
      "inputs": [],
      "name": "maxNFTPerWallet",
      "outputs": [
        {
          "internalType": "uint256",
          "name": "",
          "type": "uint256"
        }
      ],
      "stateMutability": "view",
      "type": "function"
    },
    {
      "inputs": [],
      "name": "nftContract",
      "outputs": [
        {
          "internalType": "contract IERC721Mintable",
          "name": "",
          "type": "address"
        }
      ],
      "stateMutability": "view",
      "type": "function"
    },
    {
      "inputs": [],
      "name": "owner",
      "outputs": [
        {
          "internalType": "address",
          "name": "",
          "type": "address"
        }
      ],
      "stateMutability": "view",
      "type": "function"
    },
    {
      "inputs": [
        {
          "internalType": "address",
          "name": "",
          "type": "address"
        }
      ],
      "name": "referrals",
      "outputs": [
        {
          "internalType": "address",
          "name": "referrer",
          "type": "address"
        },
        {
          "internalType": "uint256",
          "name": "totalCommission",
          "type": "uint256"
        }
      ],
      "stateMutability": "view",
      "type": "function"
    },
    {
      "inputs": [],
      "name": "renounceOwnership",
      "outputs": [],
      "stateMutability": "nonpayable",
      "type": "function"
    },
    {
      "inputs": [
        {
          "internalType": "uint256",
          "name": "",
          "type": "uint256"
        }
      ],
      "name": "saleRounds",
      "outputs": [
        {
          "internalType": "uint256",
          "name": "id",
          "type": "uint256"
        },
        {
          "internalType": "uint256",
          "name": "startTime",
          "type": "uint256"
        },
        {
          "internalType": "uint256",
          "name": "endTime",
          "type": "uint256"
        },
        {
          "internalType": "uint256",
          "name": "maxSupply",
          "type": "uint256"
        },
        {
          "internalType": "uint256",
          "name": "price",
          "type": "uint256"
        },
        {
          "internalType": "bool",
          "name": "whitelistOnly",
          "type": "bool"
        },
        {
          "internalType": "uint256",
          "name": "totalMinted",
          "type": "uint256"
        }
      ],
      "stateMutability": "view",
      "type": "function"
    },
    {
      "inputs": [],
      "name": "totalMinted",
      "outputs": [
        {
          "internalType": "uint256",
          "name": "",
          "type": "uint256"
        }
      ],
      "stateMutability": "view",
      "type": "function"
    },
    {
      "inputs": [
        {
          "internalType": "address",
          "name": "newOwner",
          "type": "address"
        }
      ],
      "name": "transferOwnership",
      "outputs": [],
      "stateMutability": "nonpayable",
      "type": "function"
    },
    {
      "inputs": [
        {
          "internalType": "address",
          "name": "",
          "type": "address"
        }
      ],
      "name": "whitelisted",
      "outputs": [
        {
          "internalType": "bool",
          "name": "",
          "type": "bool"
        }
      ],
      "stateMutability": "view",
      "type": "function"
    }
  ],
  "bytecode": "0x6101606040523480156200001257600080fd5b5060405162001c5a38038062001c5a833981016040819052620000359162000317565b604051806040016040528060078152602001664e465453616c6560c81b815250604051806040016040528060018152602001603160f81b81525062000089620000836200022a60201b60201c565b6200022e565b620000968260016200027e565b61012052620000a78160026200027e565b61014052815160208084019190912060e052815190820120610100524660a0526200013560e05161010051604080517f8b73c3c69bb8fe3d512ecc4cf759cc79239f7b179b0ffacaa9a75d522b39400f60208201529081019290925260608201524660808201523060a082015260009060c00160405160208183030381529060405280519060200120905090565b60805250503060c0526001600160a01b0383163b6200019b5760405162461bcd60e51b815260206004820152601c60248201527f496e76616c6964204e465420636f6e747261637420616464726573730000000060448201526064015b60405180910390fd5b60008211620001ed5760405162461bcd60e51b815260206004820152601a60248201527f496e76616c6964206d6178204e4654207065722077616c6c6574000000000000604482015260640162000192565b600380546001600160a01b039485166001600160a01b0319918216179091556006929092556000600555600480549190931691161790556200053e565b3390565b600080546001600160a01b038381166001600160a01b0319831681178455604051919092169283917f8be0079c531659141344cd1fd0a4f28419497f9722a3daafe3b4186f6b6457e09190a35050565b60006020835110156200029e576200029683620002b7565b9050620002b1565b81620002ab8482620003fd565b5060ff90505b92915050565b600080829050601f81511115620002e5578260405163305a27a960e01b8152600401620001929190620004c9565b8051620002f28262000519565b179392505050565b80516001600160a01b03811681146200031257600080fd5b919050565b6000806000606084860312156200032d57600080fd5b6200033884620002fa565b9250602084015191506200034f60408501620002fa565b90509250925092565b634e487b7160e01b600052604160045260246000fd5b600181811c908216806200038357607f821691505b602082108103620003a457634e487b7160e01b600052602260045260246000fd5b50919050565b601f821115620003f857600081815260208120601f850160051c81016020861015620003d35750805b601f850160051c820191505b81811015620003f457828155600101620003df565b5050505b505050565b81516001600160401b0381111562000419576200041962000358565b62000431816200042a84546200036e565b84620003aa565b602080601f831160018114620004695760008415620004505750858301515b600019600386901b1c1916600185901b178555620003f4565b600085815260208120601f198616915b828110156200049a5788860151825594840194600190910190840162000479565b5085821015620004b95787850151600019600388901b60f8161c191681555b5050505050600190811b01905550565b600060208083528351808285015260005b81811015620004f857858101830151858201604001528201620004da565b506000604082860101526040601f19601f8301168501019250505092915050565b80516020808301519190811015620003a45760001960209190910360031b1b16919050565b60805160a05160c05160e0516101005161012051610140516116c1620005996000396000610b5b01526000610b3001526000610f9a01526000610f7201526000610ecd01526000610ef701526000610f2101526116c16000f3fe608060405234801561001057600080fd5b50600436106101165760003560e01c80639cbe5efd116100a2578063c7c5a8c011610071578063c7c5a8c014610324578063d56d229d1461032d578063d936547e14610340578063f2fde38b14610363578063fc6f94681461037657600080fd5b80639cbe5efd146102e95780639e115f7514610300578063a2309ff814610313578063a365f2a51461031c57600080fd5b8063484bb244116100e9578063484bb2441461024b578063715018a61461026e57806384b0196e146102765780638da5cb5b146102915780639ca423b3146102b657600080fd5b806312f810381461011b57806321874ae21461015e5780633e4111fb146101b157806345199ce1146101c6575b600080fd5b61014961012936600461130e565b8051602081830181018051600c8252928201919093012091525460ff1681565b60405190151581526020015b60405180910390f35b61019261016c36600461135f565b6001600160a01b039081166000908152600b602052604090208054600190910154911691565b604080516001600160a01b039093168352602083019190915201610155565b6101c46101bf36600461137a565b610389565b005b6102146101d43660046113ea565b600a6020526000908152604090208054600182015460028301546003840154600485015460058601546006909601549495939492939192909160ff169087565b6040805197885260208801969096529486019390935260608501919091526080840152151560a083015260c082015260e001610155565b61014961025936600461135f565b60086020526000908152604090205460ff1681565b6101c4610b0e565b61027e610b22565b6040516101559796959493929190611453565b6000546001600160a01b03165b6040516001600160a01b039091168152602001610155565b6101926102c436600461135f565b600b60205260009081526040902080546001909101546001600160a01b039091169082565b6102f260055481565b604051908152602001610155565b6102f261030e3660046114e9565b610bab565b6102f260075481565b6102f2600581565b6102f260065481565b60035461029e906001600160a01b031681565b61014961034e36600461135f565b60096020526000908152604090205460ff1681565b6101c461037136600461135f565b610c0a565b60045461029e906001600160a01b031681565b6003546001600160a01b03166103dd5760405162461bcd60e51b81526020600482015260146024820152731391950818dbdb9d1c9858dd081b9bdd081cd95d60621b60448201526064015b60405180910390fd5b6001600160a01b038416600090815260086020526040902054849060ff166104475760405162461bcd60e51b815260206004820152601a60248201527f5061796d656e7420746f6b656e206e6f7420616363657074656400000000000060448201526064016103d4565b83600c816040516104589190611562565b9081526040519081900360200190205460ff166104b75760405162461bcd60e51b815260206004820181905260248201527f4f6e6c79207369676e617475726520686173206e6f74206265656e207573656460448201526064016103d4565b604080518082019091526001600160a01b03851681526020810184905260006104e08288610c83565b90506001600c886040516104f49190611562565b908152604051908190036020019020805491151560ff19909216919091179055336001600160a01b038716036105645760405162461bcd60e51b815260206004820152601560248201527421b0b73737ba103932b332b9103cb7bab939b2b63360591b60448201526064016103d4565b6001600160a01b0386166105ba5760405162461bcd60e51b815260206004820152601860248201527f496e76616c69642072656665727265722061646472657373000000000000000060448201526064016103d4565b6000898152600a6020526040902080546106065760405162461bcd60e51b815260206004820152600d60248201526c125b9d985b1a59081c9bdd5b99609a1b60448201526064016103d4565b806001015442101561064e5760405162461bcd60e51b8152602060048201526011602482015270149bdd5b99081b9bdd081cdd185c9d1959607a1b60448201526064016103d4565b80600201544211156106905760405162461bcd60e51b815260206004820152600b60248201526a149bdd5b9908195b99195960aa1b60448201526064016103d4565b80600301548160060154106106e75760405162461bcd60e51b815260206004820152601860248201527f526f756e64206d617820737570706c792072656163686564000000000000000060448201526064016103d4565b600581015460ff1615610745573360009081526009602052604090205460ff166107455760405162461bcd60e51b815260206004820152600f60248201526e139bdd081dda1a5d195b1a5cdd1959608a1b60448201526064016103d4565b6006546003546040516370a0823160e01b81523360048201526001600160a01b03909116906370a0823190602401602060405180830381865afa158015610790573d6000803e3d6000fd5b505050506040513d601f19601f820116820180604052508101906107b4919061157e565b106108015760405162461bcd60e51b815260206004820152601a60248201527f4d6178204e4654207065722077616c6c6574207265616368656400000000000060448201526064016103d4565b6000899050600060646005846004015461081b91906115ad565b61082591906115c4565b6004848101546040516323b872dd60e01b81523392810192909252306024830152604482018190529192506001600160a01b038416906323b872dd906064016020604051808303816000875af1158015610883573d6000803e3d6000fd5b505050506040513d601f19601f820116820180604052508101906108a791906115e6565b6108e45760405162461bcd60e51b815260206004820152600e60248201526d14185e5b595b9d0819985a5b195960921b60448201526064016103d4565b60405163a9059cbb60e01b81526001600160a01b038b811660048301526024820184905284169063a9059cbb906044016020604051808303816000875af1158015610933573d6000803e3d6000fd5b505050506040513d601f19601f8201168201806040525081019061095791906115e6565b6109a35760405162461bcd60e51b815260206004820152601a60248201527f436f6d6d697373696f6e207472616e73666572206661696c656400000000000060448201526064016103d4565b6001600160a01b038a166000818152600b6020526040812080546001600160a01b0319169092178255600190910180548492906109e190849061160f565b90915550506007546000906109f790600161160f565b600780549192506000610a0983611622565b9091555050600685018054906000610a2083611622565b90915550506003546040516340c10f1960e01b8152336004820152602481018390526001600160a01b03909116906340c10f1990604401600060405180830381600087803b158015610a7157600080fd5b505af1158015610a85573d6000803e3d6000fd5b50506040518381523392507f7f8aed29394d49180b299699236f142fbd3a78f6d1464929dd17e87b73ebc8d2915060200160405180910390a260405183815233906001600160a01b038d16907f86ddab457291316e0f5496737e5ca67c4037234c32c3be04c48ae96186893a7b9060200160405180910390a35050505050505050505050505050565b610b16610cdb565b610b206000610d35565b565b600060608082808083610b567f00000000000000000000000000000000000000000000000000000000000000006001610d85565b610b817f00000000000000000000000000000000000000000000000000000000000000006002610d85565b60408051600080825260208201909252600f60f81b9b939a50919850469750309650945092509050565b604080516001600160a01b0380851660208084019190915230938301939093528351166060820152908201516080820152600090610c019060a00160405160208183030381529060405280519060200120610e30565b90505b92915050565b610c12610cdb565b6001600160a01b038116610c775760405162461bcd60e51b815260206004820152602660248201527f4f776e61626c653a206e6577206f776e657220697320746865207a65726f206160448201526564647265737360d01b60648201526084016103d4565b610c8081610d35565b50565b600080610c903385610bab565b9050610cd383610ccd837f19457468657265756d205369676e6564204d6573736167653a0a3332000000006000908152601c91909152603c902090565b90610e5d565b949350505050565b6000546001600160a01b03163314610b205760405162461bcd60e51b815260206004820181905260248201527f4f776e61626c653a2063616c6c6572206973206e6f7420746865206f776e657260448201526064016103d4565b600080546001600160a01b038381166001600160a01b0319831681178455604051919092169283917f8be0079c531659141344cd1fd0a4f28419497f9722a3daafe3b4186f6b6457e09190a35050565b606060ff8314610d9f57610d9883610e81565b9050610c04565b818054610dab9061163b565b80601f0160208091040260200160405190810160405280929190818152602001828054610dd79061163b565b8015610e245780601f10610df957610100808354040283529160200191610e24565b820191906000526020600020905b815481529060010190602001808311610e0757829003601f168201915b50505050509050610c04565b6000610c04610e3d610ec0565b8360405161190160f01b8152600281019290925260228201526042902090565b6000806000610e6c8585610ff0565b91509150610e7981611035565b509392505050565b60606000610e8e8361117f565b604080516020808252818301909252919250600091906020820181803683375050509182525060208101929092525090565b6000306001600160a01b037f000000000000000000000000000000000000000000000000000000000000000016148015610f1957507f000000000000000000000000000000000000000000000000000000000000000046145b15610f4357507f000000000000000000000000000000000000000000000000000000000000000090565b610feb604080517f8b73c3c69bb8fe3d512ecc4cf759cc79239f7b179b0ffacaa9a75d522b39400f60208201527f0000000000000000000000000000000000000000000000000000000000000000918101919091527f000000000000000000000000000000000000000000000000000000000000000060608201524660808201523060a082015260009060c00160405160208183030381529060405280519060200120905090565b905090565b60008082516041036110265760208301516040840151606085015160001a61101a878285856111a7565b9450945050505061102e565b506000905060025b9250929050565b600081600481111561104957611049611675565b036110515750565b600181600481111561106557611065611675565b036110b25760405162461bcd60e51b815260206004820152601860248201527f45434453413a20696e76616c6964207369676e6174757265000000000000000060448201526064016103d4565b60028160048111156110c6576110c6611675565b036111135760405162461bcd60e51b815260206004820152601f60248201527f45434453413a20696e76616c6964207369676e6174757265206c656e6774680060448201526064016103d4565b600381600481111561112757611127611675565b03610c805760405162461bcd60e51b815260206004820152602260248201527f45434453413a20696e76616c6964207369676e6174757265202773272076616c604482015261756560f01b60648201526084016103d4565b600060ff8216601f811115610c0457604051632cd44ac360e21b815260040160405180910390fd5b6000807f7fffffffffffffffffffffffffffffff5d576e7357a4501ddfe92f46681b20a08311156111de5750600090506003611262565b6040805160008082526020820180845289905260ff881692820192909252606081018690526080810185905260019060a0016020604051602081039080840390855afa158015611232573d6000803e3d6000fd5b5050604051601f1901519150506001600160a01b03811661125b57600060019250925050611262565b9150600090505b94509492505050565b634e487b7160e01b600052604160045260246000fd5b600082601f83011261129257600080fd5b813567ffffffffffffffff808211156112ad576112ad61126b565b604051601f8301601f19908116603f011681019082821181831017156112d5576112d561126b565b816040528381528660208588010111156112ee57600080fd5b836020870160208301376000602085830101528094505050505092915050565b60006020828403121561132057600080fd5b813567ffffffffffffffff81111561133757600080fd5b610cd384828501611281565b80356001600160a01b038116811461135a57600080fd5b919050565b60006020828403121561137157600080fd5b610c0182611343565b600080600080600060a0868803121561139257600080fd5b853594506113a260208701611343565b9350604086013567ffffffffffffffff8111156113be57600080fd5b6113ca88828901611281565b9350506113d960608701611343565b949793965091946080013592915050565b6000602082840312156113fc57600080fd5b5035919050565b60005b8381101561141e578181015183820152602001611406565b50506000910152565b6000815180845261143f816020860160208601611403565b601f01601f19169290920160200192915050565b60ff60f81b881681526000602060e08184015261147360e084018a611427565b8381036040850152611485818a611427565b606085018990526001600160a01b038816608086015260a0850187905284810360c0860152855180825283870192509083019060005b818110156114d7578351835292840192918401916001016114bb565b50909c9b505050505050505050505050565b60008082840360608112156114fd57600080fd5b61150684611343565b92506040601f198201121561151a57600080fd5b506040516040810181811067ffffffffffffffff8211171561153e5761153e61126b565b60405261154d60208501611343565b81526040939093013560208401525092909150565b60008251611574818460208701611403565b9190910192915050565b60006020828403121561159057600080fd5b5051919050565b634e487b7160e01b600052601160045260246000fd5b8082028115828204841417610c0457610c04611597565b6000826115e157634e487b7160e01b600052601260045260246000fd5b500490565b6000602082840312156115f857600080fd5b8151801515811461160857600080fd5b9392505050565b80820180821115610c0457610c04611597565b60006001820161163457611634611597565b5060010190565b600181811c9082168061164f57607f821691505b60208210810361166f57634e487b7160e01b600052602260045260246000fd5b50919050565b634e487b7160e01b600052602160045260246000fdfea264697066735822122018f1fd7d258dbc10a0c4adbeb817e499a6f0018e3d6613f2fa993c9d559da8ec64736f6c63430008130033",
  "linkReferences": {},
  "deployedLinkReferences": {}
}